:10000000F8A105206D400000F1B70000414000005C
:1000100041400000414000004140000041400000DC
:10002000000000000000000000000000113D000082
:100030004140000000000000B93C000041400000C9
:10004000913D0000913D0000913D0000913D000078
:10005000913D0000913D0000913D0000913D000068
:10006000913D0000913D0000913D0000913D000058
:10007000913D0000913D0000913D0000913D000048
:10008000913D0000913D0000913D0000913D000038
:10009000913D0000913D0000913D0000913D000028
:1000A000913D0000913D0000913D0000913D000018
:1000B000913D0000913D0000913D0000913D000008
:1000C000913D0000913D0000913D0000913D0000F8
:1000D000913D0000913D0000913D0000913D0000E8
:1000E000913D0000913D0000913D0000913D0000D8
:1000F000913D0000913D0000913D0000913D0000C8
:10010000913D0000913D0000913D0000913D0000B7
:10011000913D0000913D0000913D0000913D0000A7
:10012000913D0000913D0000913D0000913D000097
:10013000913D0000913D0000913D0000913D000087
:10014000913D0000913D0000913D0000913D000077
:04015000913D0000DD
:1001540053B94AB9002908BF00281CBF4FF0FF312A
:100164004FF0FF3000F00CB8ADF1080C6DE904CE8F
:1001740000F008F8DDF804E0DDE9022304B070477C
:10018400704700BF2DE9F04786468C460846089E16
:10019400154674461946002B40F0C1808542B2FAD8
:1001A40082F245D94AB1C2F1200300FA02FC95401B
:1001B40094402EFA03F343EA0C0C4FEA154EA8B20E
:1001C400230CBCFBFEF80EFB18CC08FB00F943EA39
:1001D4000C43994528D9EB1808F1FF3704D2994507
:1001E40002D9A8F102072B44A3EB0903A4B2B3FB81
:1001F400FEFC0EFB1C330CFB00F044EA0344A0425B
:1002040014D92C190CF1FF3304D2A04202D9ACF159
:1002140002032C44241A43EA07401EB1D4400023AD
:1002240034607360BDE8F0874746DDE76346F1E775
:1002340092BB431B01214FEA154EAFB2200CB3FB16
:10024400FEFC0EFB1C330CFB07F840EA0343984505
:1002540061D9EB180CF1FF3004D2984502D9ACF106
:1002640002002B44A3EB0803A4B2B3FBFEFC0EFB79
:100274001C330CFB07F744EA0344A7424DD92C195D
:100284000CF1FF3304D2A74202D9ACF102032C448F
:10029400E41B43EA0040C0E7C2F1200395409440C8
:1002A40020FA03F12EFA03F34FEA154E9040AFB251
:1002B4000343B1FBFEFC0EFB1C10190C0CFB07F8EE
:1002C40041EA0041884522D969180CF1FF3004D273
:1002D400884502D9ACF102002944A1EB08019BB284
:1002E400B1FBFEFC0EFB1C110CFB07F743EA0143B8
:1002F4009F420ED9EB180CF1FF3104D29F4202D970
:10030400ACF102012B44DB1B41EA004193E7604658
:10031400E3E76146F7E76046A4E76346B8E783424C
:1003240006D916B9002108467CE7C6E900E0F9E7DA
:10033400B3FA83F78FB9834201D3724508D8BEEB71
:10034400020460EB030301209C461EB9002169E707
:100354003846FAE7C6E9004CF8E7C7F1200CBB4081
:100364000EFA07F522FA0CF42EFA0CF1BA401C43EB
:1003740020FA0CF3B8404FEA144901431FFA84FEF3
:10038400B3FBF9F809FB18300B0C08FB0EFA43EA2F
:1003940000439A4540D9E31808F1FF3004D29A4546
:1003A40002D9A8F102002344A3EB0A0389B2B3FBE8
:1003B400F9F809FB183308FB0EFE41EA03418E45A8
:1003C4002CD9611808F1FF3304D28E4502D9A8F163
:1003D4000203214443EA0040A1EB0E01A0FB029872
:1003E4004145CE46434602D306D14D4504D2013899
:1003F400B9EB020E68EB0403002EA7D0B5EB0E0296
:1004040061EB030101FA0CFC22FA07F3F9404CEA10
:100414000303C6E9003199E74046C5E74346D9E7F7
:10042400F0B5424B424A85B0C2F80036C2F80436F1
:10043400C2F80836C2F80C36C2F81036C2F81436C0
:10044400C2F81836C2F81C3602F58052C2F80036DB
:10045400C2F80436C2F80836C2F80C36C2F81036B0
:10046400C2F81436C2F81836C2F81C3600F074F814
:10047400304C20460DF0B1FE00B32569A6682B6808
:100484000D2143F400532B60204633682A4A9847D1
:100494002046736801A9984720B92A68019B5340F4
:1004A4009A040BD54FF05023D3F800340BB1DB077B
:1004B40004D502F0EBFE214803F0DEFA01A800F0B7
:1004C400A1FE1F4B1B68834200D0FEE74FF480312E
:1004D400002005F09DFF044600B1FEE706F040F859
:1004E40069469DF808000AF07DF8009B039D1D44B1
:1004F400019B1E8905F074FFAF1901F0E5FE00F0C1
:10050400ADFE00F08FFE03F0F1FD84F30B8884F35D
:100514000A88AB5983F3088884F31488BFF36F8F78
:10052400BFF36F8F7B689847FEE700BF3546526E76
:1005340000800150B8E900001100010098ED0000AE
:100544007027002004289ABF024B18566FF015003C
:10055400704700BF42F300004FF4C051014806F059
:100564009BBA00BF4E4601207FB51C4683881F4EB0
:100574003F2B2ED10378022B2BD1C5794DBB0920FB
:1005840001A901F07DFB002821DB0198294682683E
:100594000AF0E9FE054601980AF0BAFE003D18BFCC
:1005A40001250A2120460DF00BFE022302A9204654
:1005B400029603930DF0FDFD294620460DF0ECFD57
:1005C4000A2120460DF004FE002004B070BD012570
:1005D400E7E70A2120460DF0F3FD022302A9204695
:1005E400029603930DF0E5FD0821E6E747F30000CA
:1005F4002DE9F04FDFF8C0A1F9B038A8DDE984781F
:1006040016461C46DDF818B2DAF800500CF0E2FF8A
:10061400002138A806F03EFB3FB1B8F1000F04DD1D
:100624004246394638A80CF0D9FF4FF000087389C8
:1006340037891F44F3681F44474546D80DA938A895
:100644000DF010F8BBF1000F04D0202258460DA97C
:100654000BF02BF900232246009331464FF6FF732B
:1006640007A809F0F5FF804660BB20460C9E0AF0FF
:100674009BF8864226D84FF0FF37DFF840910DF102
:10068400160305AA06A907A80AF030F8002819DB02
:1006940040F08A80BDF81660102E2ED1BDF814608B
:1006A400202E0FD133462046069938AA0AF031FE8F
:1006B40040B9324638A90DA80AF064F8404B1B68CB
:1006C400834217D0DAF8005071E0839BA7EB080946
:1006D400994528BF994641464B462046829A0AF0DE
:1006E40018FE0028EED14A46829938A80CF076FF0D
:1006F400C844A1E74FF00108C1E7012E35D1BDF888
:100704001430202BDED82046069938AA0AF001FEC0
:1007140007460028D6D19DF814B0BBF1200F02D9AA
:100724004FF0FF37ABE7D9F80030264E0393039B15
:100734009F42F5DA1DA80CF04DFF00211DA806F01C
:10074400A9FA72681DA8126856F8081B0CF046FF37
:1007540015A91DA80CF086FF5A4638A915A80BF058
:100764007DF800288BD00137E1E7202E87D17B1C50
:1007740085D0D9F80030BB42D2DDBDF81430B3F5D2
:10078400807F9FD12046069938AA0AF0C2FD00282E
:1007940098D1FFB23146BDF81430009738AA0DA89D
:1007A40000F012F80546BBE7B8F1000F8AD02846DE
:1007B40079B0BDE8F08F00BFB8200020A0ED0000A4
:1007C40070270020A4ED00002DE9F04FDFF8B4A15C
:1007D400ADF54D7D074629A89DF858B38946904646
:1007E4001E46DAF800500CF0B2FE674B8CAA53F8A0
:1007F4003B4003EBCB035B6804941B6804A81C44D4
:10080400214630230BF0CAFC70BB049B8C9A134422
:100814009C4229D121462BAA04A80BF0D3FC18BB77
:100824000DF1B80B5A46214604A80BF0CBFC0390FB
:10083400D0B92BA80BF0BDFD049A2A90944213D191
:10084400039BCDF804B01A4600932BA929A80CF0F9
:100854003BFE48B929A806F0AFF928B92BA80BF03C
:10086400A8FD86422A900AD029A80CF07AFE29A86D
:100874000CF077FE28460DF54D7DBDE8F08FB6F5FA
:10088400807FDAF800507BD1B9F1200F78D141464E
:100894008CAA29A806F0B6F90446002870D19DF860
:1008A4002F33BC2B6CD1DF2605900DF5A8790EA84B
:1008B4000CF090FE00210EA806F0ECF920220DF2B7
:1008C4000F310EA80CF08AFE042205A90EA80CF024
:1008D40085FE06A90EA80CF0C5FE202EB046A8BFC2
:1008E4004FF020089DF8173048460133424606A9C8
:1008F400A6EB08068DF817300AF0D7FF002EC14486
:10090400D5DC54AB184600219C468CAA067812F814
:1009140001EB013186EA0E06DF2900F8016BF5D1FF
:100924001A7802F07F021A7013F8016B46BB013487
:10093400BE2CF9D19CF8BE30012B21D10EA80CF0AD
:1009440049FE31460EA806F0A5F908220F490EA863
:100954000CF044FE394620220EA80CF03FFE202263
:100964000DF20F210EA80CF039FE06A90EA80CF00A
:1009740079FE20220DF20F3106A809F003FF054687
:1009840075E700BFB8200020A4ED00004AF3000082
:100994002DE9F04F584B89B0044690F8B8000E4644
:1009A4001D6809F025FE06A98046C0B201F068F969
:1009B40000286FD194F8B8703146384609F018FE13
:1009C4004FF02C0907A9C0B209FB06F901F058F948
:1009D400002845D04FF0580B2C220BFB07F302FBE9
:1009E400063323441B6913F0100A4ED1314694F8A0
:1009F400B80005F0D3FD0546404B1B68984212D160
:100A04004FF4807307FB0B920193CDE903AA3C4B8F
:100A1400CDF808A000935046069B94F8B8102244E1
:100A2400FFF7E6FD054658235F432C2303FB0677B7
:100A3400344AE1590698914204EB07030AD1DA6873
:100A44001B899B1806D28268934203D22E4B1B68E3
:100A5400AB4223D0CEB1002182680AF084FC14E0BA
:100A640007980AF09BFC054607980AF051FC5823A6
:100A740094F8B82002FB039323445A1E033312F85C
:100A8400011FA942A6D19A42F9D1204B1D680698AC
:100A94000AF03EFC284609B0BDE8F08F94F8B8305F
:100AA40043B3012B0CBF0822FF229045EFD15822FB
:100AB4005343E218176A002207922C2202FB0633E2
:100AC40023441989042307AA19440AF022FC0028A4
:100AD400DBD194F8B8300799012B0BBF0C4AD7E946
:100AE40001234FF082739B18914201D39942CED9CE
:100AF4000698B0E70222D8E7B8200020B0200020F2
:100B04004E5E01203DB8F39670270020B4200020EB
:100B1400008800012DE9F84F884691469A46002640
:100B2400DFF88CB0234D244C0B9B9E4201D3002054
:100B34000FE00B9B40469F1BB7F5806F28BF4FF417
:100B440080671B4A3B4606EB0A010AF0E2FB10B140
:100B54000120BDE8F88F0A993B465A464846711869
:100B64000AF0ECFB0028F3D1144BC5F800463E44D0
:100B7400C5F80446C5F80846C5F80C46C5F810463D
:100B8400C5F81446C5F81846C5F81C46C3F800460F
:100B9400C3F80446C3F80846C3F80C46C3F8104625
:100BA400C3F81446C3F81846C3F81C46BCE700BF94
:100BB40074270120008001503546526E0090015088
:100BC4002DE9F04F002604460D46B0465827DFF8BD
:100BD400CC92DFF8CCA295B0012E84F8B86007D986
:100BE400B8F1000F00F0408100202C265827CDE0FA
:100BF400A31993F8B91000294BD107FB064309EB5D
:100C040086325A620AEB86321A65304609F0F0FCE5
:100C140094F8B810C0B207FB0141203101F030F85C
:100C24000121304609F0E4FC94F8B810C0B207FB87
:100C340001414C3101F024F8204609F0E8FD00BBE5
:100C440000222046114609F010FE834690B9204642
:100C540009F06CFE70B10AA809F036FE09F03DFEF9
:100C6400064660BB94F8B830C3B9002120460AAAEE
:100C740009F0FBFD012294F8B830234483F8B02036
:100C840007E0012294F8B8309042234483F8B0205E
:100C9400D6D194F8B8600136F6B29DE794F8B02046
:100CA400042A04BF012284F8B020012BDDD094F87B
:100CB400B130042BD9D1012384F8B130D5E79DF8A4
:100CC4002F30012B4AD1582294F8B830CDF838B0DF
:100CD40002FB0343734AD96AD86C914216D094F844
:100CE400B80005F003FD831E022B834618D80121AA
:100CF4002046FFF74DFE6C4B1B68984210D06B4B9F
:100D04001B6898420AD14FF0010B09E0998E042325
:100D14000EAA19440AF0FDFA0028E0D04FF0050BA2
:100D240094F8B830234483F8B0B094F8B8306BB179
:100D3400E21892F8B020012AABD0042A0CD094F81F
:100D4400B020042A02D1012284F8B020234493F86D
:100D5400B030023B022B9CD8B0469AE701212046D2
:100D6400FFF716FE504B1B68984218BF052294F8F3
:100D7400B83008BF9DF82F20234483F8B020D4E76F
:100D8400231893F8B92032B10130C0B2012884F895
:100D9400B800F5D968E093F8B08008F0FB08B8F122
:100DA400010818BF4FF00108414609F021FC05A9CC
:100DB400C0B200F065FF00287CD1012306FB08F8CF
:100DC40094F8B810059A17FB01810093214440233D
:100DD4000EA809F03DFC804600286DD100230DF1DA
:100DE400120206A90EA809F081FC00283CDB059834
:100DF4006FD1BDF812300C2B69D1069907AA0AF0FD
:100E040088FA00286ED19DF81C30012B6DD8E218A9
:100E140092F8B0207B43023A022A8CBF00220122BE
:100E240006FB02332344197D9DF820209142D5D836
:100E34000AD3597D9DF821209142CFD804D3DA8A70
:100E4400BDF822309A42C9D294F8B83005982344A8
:100E540093F8B020012A1FD0023A012A02D80122B5
:100E640083F8B0200AF054FA00264FF0FF08582700
:100E7400012E84F8B8603BD90023DFF834800A4E91
:100E84000A4F0E93012B84F8B83040F245810E9A34
:100E9400022A00F09481FEE70422E1E774A700200F
:100EA400742700203DB8F39670270020B42000205A
:100EB400B82000200598D5E705980AF029FAB8F17A
:100EC400030FD1D140F20113A4F8B030CCE74FF0B6
:100ED400030805980AF01CFAB8F1000FEFD194F852
:100EE400B80051E74FF00108F3E74FF00708F0E7C7
:100EF400A21992F8B930002B40F009810AA809F030
:100F0400E3FC92F8B030042B8DF82F3006D8012B77
:100F140006D800F0AD8082F8B080A9E0052BF8E790
:100F240007FB0643194630462C31DA6C0BF060F8A7
:100F34000128014640F09C8094F8B80009F058FB61
:100F440007A9C0B200F09CFE002800F099804FF081
:100F5400000907980AF0DCF994F8B80007A90028FA
:100F640000F0CD80012800F0C680FF2000F088FE4C
:100F7400FF2000264FF0580BB2460EA900F080FE69
:100F840094F8B8300BFB03439B6A534519D094F88B
:100F9400B82031460BFB0242526A079802EBCA02A0
:100FA4005268039302920AF0DEF9029A039B1644F4
:100FB4004E45C0F0A980D4F8B460B9FBF6F906FB3D
:100FC4000966D4F8B40009F0DFFB582394F8B8207C
:100FD40003FB0242536A926A1968013A03EBC203A3
:100FE4000022D3F804E09C4672449042A3F1080323
:100FF400F7D8DCF800300798591A0AF0B4F900233E
:101004002046079A0E9901960093FFF783FD78BB5B
:10101400079805F0F5FA58BB4FF0580994F8B80052
:10102400324609FB0043196A0AF0F0FF0146F8B999
:1010340094F8B8300E9809FB03431B6D5A680AF004
:1010440092F994F8B83009FB0343D3E91423013B24
:1010540052F8331002EBC30013684268C91A0E98A1
:101064000AF081F907980AF053F90E980AF050F93A
:1010740094F8B830234493F8B030FF2B47D1FEE7FF
:1010840094F8B830079807FB03439E8E9B6B0EAA17
:101094001E44314604230AF03CF900287FF457AF7C
:1010A40094F8B830BDF8382007FB0343B3F836A0F2
:1010B40046F608139A42079819D1BDF83A309A4572
:1010C4007FF445AF04230EAA0AEB06010AF021F9C6
:1010D40000287FF43CAF46F60713BDF838209A4247
:1010E4007FF435AFBDF83A90D144B14431E7BAF159
:1010F400000FF0D02BE700F0C3FD082039E70420EF
:1011040000F0BEFD022034E70AF1010A3DE794F83D
:10111400B8600136F6B2ABE6234493F8B9208DF8F3
:101124001C209DF81C2002F0FF013AB10E9B0133F4
:101134000E9394F8B8300133DBB2A3E693F8B030E1
:10114400012B15D020460AAA09F08FFB80B1D8F8EC
:101154000050102200210AA80AF0B2FB58260023EE
:10116400012B84F8B83015D9284615B0BDE8F08FA6
:1011740000212046FFF70CFC33688342E7D1D8F8FE
:1011840000209A42E3D03A689A42CFD1DFE784F84C
:10119400B82031E0E21892F8B9205AB906FB0343AB
:1011A400D86C0AF0B5F894F8B83006FB0343186A13
:1011B4000AF0AEF894F8B8300133DBB2D0E794F813
:1011C400B93023B194F8BA30002BE0D1012358266A
:1011D40006FB034284F8B830106A09F01EFA28713D
:1011E40094F8B83006FB03431B6A5B68AB6094F861
:1011F400B83003FB06462E60014B1D68A9E700BF0B
:101204007027002038B5064D0446BC22002128462C
:101214000AF056FB21462846FFF7D2FC38BD00BF32
:10122400742B0120BFF36F8F72B600234FF0FF3091
:10123400094A03F120010133102B42F82100F8D1AF
:1012440000234FF0FF30044A03F160010133102BF7
:1012540042F82100F8D1704700E100E038B50122DE
:101264004FF0FF3400251A4B29465A60C3F848430F
:10127400C3F8084303F580535A60C3F84843C3F8DE
:101284000843A3F55043C3F800558022C3F808432C
:1012940010480AF015FB802229460F480AF010FB7B
:1012A4000E4B8022C3F800552946C3F808430C4866
:1012B4000AF006FB802229460A480AF001FB0A4B81
:1012C400C3F808454FF05023C3F8084338BD00BFA6
:1012D40000400150808000508081005000900050F8
:1012E4008090005080910050007001502DE9F0432F
:1012F400079D15B91560002012E00324B5FBF4F432
:1013040004EB4407BD4218BF0134B4F1804F09D245
:10131400A40001348C4200D838B96FF00B0014607B
:10132400BDE8F0834FF0FF34F7E704460021DFF80F
:10133400B4E0B94203F1030C04F104062BD3A9422F
:10134400274623D201F1010CAC451F7828BF0023A6
:1013540024494FEAA70E38BF5B7811F80EE0AC457C
:1013640084F800E001EB131E2EBF3D239B0003F025
:101374003C034FEA071738BFCB5C07F030071EF871
:101384000770A3703D2367703746E3700023381A53
:1013940010603B70AFE71CF8034C1CF8023C4FEAAA
:1013A400A4091EF8099024011CF8018C04F03004EF
:1013B40006F8049C0EEB131919F804409B0006F878
:1013C400034C03F03C030EEB9814E35C08F03F0875
:1013D40006F8023C1EF80830344606F8013C033196
:1013E4006346A6E7E0F400002DE9F04300273C46FD
:1013F4003D46DDF81CE0DFF8288175451FD3E4BBCA
:1014040000201460BDE8F0830136764533D013F82C
:1014140006C0BCF1200FF7D0AEEB0609B9F1010FFD
:10142400A6EB05050DD0BCF10D0F0AD103EB06099F
:1014340099F80190B9F10A0F6ED1751CDDE72E46BB
:10144400E3E7BCF10A0FF8D02DB9BCF13D0F05D18B
:101454000137022F0DD96FF01500D3E71CF0800F70
:10146400F9D118F80C507F2DF5D03F2D01D8002F5D
:10147400F1D10134E1E73546C1E74FF0060C04F041
:101484000706E4080CFB06F60CFB04F40736E41B21
:1014940004EBD60470B18C420CD800270146032615
:1014A4003C46DFF87CE0DFF87C801D449D4205D19A
:1014B4000C1AA5E76FF00B001460A3E713F8019B67
:1014C400A9F10A0C5FFA8CFCBCF1160F04D848FA97
:1014D4000CFC1CF0010FE9D01EF809C00134BCF16A
:1014E400400F08BF013E0CF03F0C042C4CEA871758
:1014F400DCD17EB13C0C012E0C7002D101310024F0
:10150400D4E7022E4FEA17244C7016BF8F700231B5
:101514000331F4E73446C9E7002DA2D09BE700BFAE
:1015240060F40000F6FFBFFF2DE9F047058B044689
:101534002807904611D4022905F0070540F0CD8014
:10154400204609F002FD78B10138218B042811D816
:10155400DFE800F0C3106D85950001290CBF45F04C
:10156400100545F02005258388F31188BFF36F8F9C
:10157400BDE8F08701F0070AAA4500F0A68000271D
:10158400B9463E46A368002B00F0BD8041F0080137
:10159400218388F31188BFF36F8FA168002900F0BD
:1015A400BB800D68002900F0B780334652462046C0
:1015B400D1F80480C047002D76D02B6829461D46FB
:1015C400F0E701F007035A1F012A1BD8002221F07B
:1015D4000701062B276889B2C4E9002209D13B46DA
:1015E40003E0628B013262831B68002BF9D141F066
:1015F40002012046218309F0A8FC00287BD041F099
:10160400200177E0042B0AD121F0070189B220469A
:10161400218309F09AFC10B141F020012183218B30
:1016240001F0070AAA4550D00027B946AAE7236962
:1016340021F0070141F00601062DD3F80090218323
:101644002DD1B9F1000F40D041F00801218388F376
:101654001188BFF36F8F20463949C84729E021F02C
:101664000701236941F0040189B2042DD3F80490E1
:101674002183E6D000274FF0040A3E4682E721F09A
:101684000701236941F0050189B2052DD3F80890BB
:101694002183D6D000274FF0050A3E4672E7002783
:1016A4004FF0060A3E466DE72B4687E7B9F1000F77
:1016B400D1D14FF02003EFF3118883F31288BFF3E5
:1016C4006F8F238B23F008032383258BEA062ED503
:1016D40025F01003238305F007056669218B002E8E
:1016E400BFF66FAF00232768C4E9003321F0070178
:1016F40041F001012183218B4FF0000901F0070A19
:10170400AA457FF43FAF002F9BD041F0080121830D
:1017140088F31188BFF36F8F002FC7D03D68394617
:1017240033465246204609F03CFC2F46F4E7AB060C
:101734007FF51AAF25F02003238305F00705FFE6A4
:10174400D3AF00002DE9F04F82464FF000098DB071
:101754001D46531E01910393039B58785C1C252856
:1017640019D100204FF0FF381E4644460346023686
:10177400029031780396392955D81F2914D80029A5
:1017840000F0EF8101992520D04701993078D047A6
:1017940009F10209E0E7002800F0E3810199D0474C
:1017A40009F101090394D7E7A1F12002192AE9D824
:1017B40001A757F822F000BF251800008917000080
:1017C400891700002518000089170000A5180000DB
:1017D4008917000089170000891700008917000085
:1017E400F1180000251800008917000005190000F1
:1017F400B118000089170000BF180000DF180000AE
:10180400DF180000DF180000DF180000DF180000F8
:10181400DF180000DF180000DF180000DF180000E8
:1018240008460136A5E7582900F0EB80A1F16302D0
:10183400D7B2172FA6D8172AA4D801A757F822F091
:10184400AD1A00002B190000891700008917000049
:10185400891700000B1900002B19000089170000DC
:10186400891700000B190000891700008917000070
:1018740089170000E119000089170000891700008A
:10188400811A0000891700002B1900008917000035
:1018940089170000E1190000891700000B190000E6
:1018A40025200199D04709F1010955E7029A4FF023
:1018B400000802F0FE020292B3E7002C0DDAB8F140
:1018C400000F0DDA029A002A00F043810A2224EA6A
:1018D400E47402FB0414303CA3E7B8F1000FF5DB19
:1018E4000A2202FB0812A2F130089AE7B8F1000FAD
:1018F40055F8042B80F22F81002A80F22E81544265
:10190400022202928DE7682903D1682B06D148236D
:1019140087E76C2902D16C2B00F02181002B7FF426
:1019240031AF0B467DE77A2B06D1752955F8046B48
:1019340014D14FF0000B0CE06C2BF6D04C2BF4D1EF
:10194400073525F00703752903F10805D3E9006B72
:1019540006D120283BD1854F013C09E04FEAE67BC4
:10196400BBF1000FF5DA7642814F6BEB4B0B013C78
:101974000DF12D03059300230493304659460A22A2
:101984000023FEF7E5FB059BB446303203F8012D36
:101994005A460593049BBCF10A0F8B4672F1000270
:1019A40003F1FF3106460491E7D2C3F1010B303352
:1019B4000DEB0306B8F1000FA6F104066DDA029BE5
:1019C400D9077DD4A8EB0B03A4EB0B0413E02B285D
:1019D4000ABF684F684F04F1FF34C9E770290FD17B
:1019E40055F8042B0023FAB96FF004034FF0050BEC
:1019F400614F624E053C029A920770D4A04666E09D
:101A040078216C2B03D1002355F8042B08E04C2BD0
:101A1400F9D1073525F007031D465B6855F8082BF7
:101A2400232825D1880621D5554F023C002601F0F4
:101A34006001A1F1390B0DF12D0E02F00F010929FE
:101A440088BF594430310EF8011D102A4FEA121193
:101A540041EA03714FEA131C73F1000306F1FF30EE
:101A640008D2C6F1010B06F13003A1E7454FDCE7CC
:101A7400414FDBE706460A466346DEE755F8046B4A
:101A8400304609F0E4FEB8F1000F834602DB40451E
:101A9400A8BFC3464FF00008374FA8EB0B03002B39
:101AA40092DDA4EB0804A6E755F8043B4FF0010BC4
:101AB4008DF81830304F4FF0FF33013C06AE9AE7F3
:101AC400A046EAE7029320200199D047029BB8F18F
:101AD4000108F7D524EAE472013C9144A41AB846FB
:101AE40006E0049302920199D047029A049B90461F
:101AF400424612F8010B0028F3D11A46013A15D5D3
:101B0400002BACBFC7EB03077F425B46013B15D5F7
:101B1400BBF1000FA8BF5F4426464F44013E14D5D5
:101B2400002CA8BF3F1907EB080915E6049302929D
:101B340030200199D047049B029ADFE70293019970
:101B440016F8010BD047029BE0E701992020D0470B
:101B5400E4E70122D5E6904663E6144661E64C23A9
:101B64005FE648460DB0BDE8F08F00BF33F50000D6
:101B740031F5000035F50000F5F500003DF50000F5
:101B840037F500003AF50000054B03EB8000D0F870
:101B9400003223F0E04343F04053C0F80032704772
:101BA4000025845010B54FF02003EFF3118483F324
:101BB4001288BFF36F8F01220C4B0D49C3F8002527
:101BC40002230020C1F8D036FFF7DEFF1046FFF7EE
:101BD400DBFFC1F80427C1F80429C1F8002B84F302
:101BE4001188BFF36F8F002010BD00BF001000509C
:101BF40000400050052370B5144D154E2C78013467
:101C0400B4FBF3F303EB8303E41A0AF0EDF9114A8E
:101C1400137823B156F82430C01A072814D94FF08A
:101C24005023D3F8141141B10021C3F81411D3F88F
:101C340014312C700CB9012313702C780AF0D4F9E8
:101C440046F82400012070BD0020FCE74F5F01200E
:101C5400302C01204E5F012048B1054B054A1B681A
:101C6400B3FBF2F35843044B43F0010318477047A6
:101C74008821002040420F0090ED000005F026B9B5
:101C840070B5114B0D461C68DCB1104B196800236C
:101C94008B4202DB6FF0010070BD224612F8106B1C
:101CA400864202D014460133F2E7E06810B96FF0BF
:101CB4001200F1E70CF091FA0028F8D000202C6013
:101CC400EAE76FF00C00E7E71421002004EE0000BF
:101CD40070B588B005460C46C0B269461646FFF793
:101CE400CFFF00281BDB0098C8B143682268029329
:101CF40083680195CDE903360023CDE906230593D6
:101D0400C56809F005FB6DB12846084901AA09F028
:101D1400D4FF079808B9059B236008B070BD6FF025
:101D24001500FAE76FF01200F7E700BFAFB3000049
:101D3400F0B40C4B0C4E5F6A0C4BB34203D36FF000
:101D44008500F0BC70475D68BD4209D31C693CB195
:101D540095F802C00579AC4502D12346F0BC18477A
:101D64002433EAE7442C0120902400206C24002032
:101D74002DE9F04705460E461746124CDFF8488019
:101D8400DFF84890444503D36FF08500BDE8F08741
:101D94006268D9F824309A4212D3A36983B1907847
:101DA4002979884205D13A4631462846BDE8F047AC
:101DB40018475279012A03D13A46314628469847B2
:101DC4002434DFE76C24002090240020442C0120DC
:101DD4002DE9F04105460E4617460A4CDFF82880E7
:101DE400444502D36FF0850009E063690BB92434DC
:101DF400F6E73A463146284698470028F7D1BDE829
:101E0400F08100BF6C2400209024002010B504460B
:101E140009F0A0FD10F1780F00D050B9204609F068
:101E2400E6FA044AD2F8C43023EA00030020C2F8D8
:101E3400C43010BD442C012008220021014809F0BF
:101E44003FBD00BFFF2C012070B50B4B0B4CA342D0
:101E540001D3002070BD0022196A1E7F0439D5B257
:101E6400AE4201D82433F2E7013211F832508542F0
:101E7400F5D10120EEE700BF6C240020902400205F
:101E840008B509480378C3F341130A3350F82330E3
:101E94003BB100F1080200F110019847C043C00FA4
:101EA40008BD1846FCE700BF442C012004282DE996
:101EB400F14F04460F46DFF8949016D001282DD137
:101EC400DFF88C8098F8B93043B300F00FFE214D51
:101ED4004D4520D24FF0000AD5F820B02B7F5FFA91
:101EE4008AF6B34204D82435F2E7FFF7A5FFE7E703
:101EF4000BEBC606307909F02DFD0246307909F066
:101F040076FAD8F8C430002A23EA0003C8F8C430AB
:101F14000AF1010AE2DA002388F8B9300D4D4D4583
:101F240008D30B4B1B6A6BB13946204601B0BDE8A0
:101F3400F04F1847EB681BB13A46214628469847AC
:101F44002435ECE701B0BDE8F08F00BF90240020F9
:101F5400442C01206C24002073B5C4B263060D46E2
:101F64008DF8074007D02046FFF76EFF78B10D4B80
:101F740093F8BA0058B120460A4E55B102F0ACFEAF
:101F8400F3691BB108200DF107019847012002B045
:101F940070BD02F0C9FEF369002BF7D009200DF1E2
:101FA4000701F2E7442C012073B586781E4C8DF8A6
:101FB40000600379427943EA0223ADF80230C37822
:101FC400304603F003038DF8043009F010FAD4F816
:101FD400C430054618420BD0304600F069FD304647
:101FE400FFF714FF0CF07CF910B9962007F086FE79
:101FF400684602F04DFE10F1780F03D010B10020B6
:1020040002B070BD9DF8000002F0CAFE10F1780F16
:1020140001D00028F3D10120D4F8C43084F8B900E9
:102024002B43C4F8C430EBE7442C01202DE9F047DE
:10203400924D0446AB690E461746C3B9207800F0AA
:102044001F00012876D0022800F0DC8000BB94F940
:1020540000103A68002963782EDA062B0CD0082B7E
:1020640025D0ABB9537001231370022303E19847C1
:102074000028E3D100200DE06388190A0A1F012A11
:102084008C4605D9072903D8DAB26B6A1C781CB9C7
:102094006FF01500BDE8F0875D78654503D1824295
:1020A40000F0E48001302344F0E71B78E3E095F886
:1020B400BA3013700123DEE0052B11D0092BE7D1D0
:1020C40063886E6A002B32D1FFF7B6FE638885F809
:1020D400BA30EB69002BCDD0032069499847C9E792
:1020E400A07802F0C3FD0028C4D0D1E77378042B94
:1020F40010D0052B11D0022B04D177796388BB4211
:1021040008BF012033781E443378002BEED1002819
:10211400BED0D9E796F80380F4E76388BB42F1D1D7
:10212400B8F1000FEED13046FFF73EFFEAE7FF2794
:10213400B846E9E795F8BA30D7F800C0002BA7D025
:102144006F6AA2883B4694F804E0187800289FD070
:102154005978022904D193F80480F04500F2928062
:102164000344F2E78CF800308CF80130316081E7E9
:102174001F4493E00B2B8BD100264FF0FF08B2468F
:10218400C14606E07B78042B0FD0052B21D03B7889
:102194001F443B78002BF5D1EB6913B1514607205E
:1021A4009847002E7FF466AF72E797F80280A38801
:1021B40097F803909845EAD163889945E7D1B8F137
:1021C400070F1CD805EB0803BA46012683F8BB9019
:1021D400DDE7A3884345DAD1A3784B450AD0BE781E
:1021E400304600F065FC3046FFF710FEB0FA80F68A
:1021F4007609CCE73846FFF7D7FE0646C7E7BA4666
:102204000026C4E794F900206378002A18DA002B2A
:102214007FF43EAF24793F6863060AD02046FFF777
:1022240013FE00283FF434AF95F8BA30002B3FF486
:102234002FAF3946204602F097FD00237B7014E748
:10224400012B08D0032B7FF423AF6388002B7FF48A
:102254001FAF012103E0618800297FF419AFA08832
:10226400FFF77AFE00287FF405AF11E702293B60EF
:102274007FF41BAF5B883360FCE600BF442C012075
:10228400FE2C012094F9000063780028BFF672AF99
:10229400002B3FF467AF0A2B7FF4FAAE3B78002B98
:1022A4003FF4F6AE797804297FF462AFB9788A42B4
:1022B4007FF45EAF072A8EBF0023521992F8BB3019
:1022C4008CF80030F6E600BF70B5164D95F8B830BE
:1022D400FBB102F0ABFC002822DB00F007FC002479
:1022E400D5F8C430E6B2E340DA0714D4D5F8C430E4
:1022F40004F11002D340DB0705D546F08000FFF758
:1023040085FD00280CDB0134102CE9D1002385F86D
:10231400B830002004E03046FFF778FD0028E5DA05
:1023240070BD00BF442C012013B5164C237DF3B9B6
:10233400E26801AB8020A168019209F067F8019A74
:10234400A3681344A360E3689B1AE3606BB962B1AA
:102354002369E2889A4208DD94F8C82093FBF2F1DD
:1023640002FB11330BB90123237502B010BD002306
:1023740080201A461946237502B0BDE8104002F0C9
:1023840039BD00BF442C0120002330B585B002467E
:102394000D460193002858D1002935D108220B4657
:1023A4000DEB020109F0EFFA002804DA802002F0B4
:1023B40093FC05B030BD2A4C029AC4E9035522604F
:1023C400039ABDF80E30626004F13802A2609DF9F0
:1023D40008202575002A0ADB802B04D9802002F00E
:1023E4007BFC0020E3E713B1C4E90333E1E7FFF723
:1023F40047FD0028DAD0E28823699A42D4BFE2601C
:10240400E360FFF791FFD4E7154C01ABD4E9021563
:10241400002D04DC09F0B7FA0028CADAC6E72A4618
:1024240009F0B1FA0028D9DB019AA3681344A36028
:10243400E3689B1AE360002BBBD104F13803A3606B
:10244400FFF71EFD0028DCD1B0E78028B1D1044B92
:10245400DA68002AD5D11B7D002BD2D1A9E700BFB1
:10246400442C0120054B064A58629A62054A002012
:10247400DA62054A1A63054A9A617047442C0120BE
:1024840031200000351D0000D51D0000751D000021
:1024940010B5084B93F8B84034B900F0E3F830B104
:1024A400FFF7E0FF204610BD6FF07700FBE74FF029
:1024B400FF30F8E7442C01202DE9F341414D044657
:1024C4006F6A4FF0FF324FF0FF333F4806F082FF50
:1024D40095F8B860002E6ED13C482C62E86102F099
:1024E400A3FD02F071FB041E49DB00F023FB041E74
:1024F40045DB7B78012B61D1FB79002B5ED06846EC
:1025040085F8C830ADF802308DF804608DF80060AD
:1025140002F0BEFB041E32DB802768468DF8007093
:1025240002F0B6FB041E2ADB3046294902F068FD9E
:10253400041E24DB3846264902F062FD041E1EDB1D
:10254400244CDFF89480444520D3002002F028FC7A
:10255400041E14DBD5F8C430802043F00103C5F811
:10256400C43002F01DFC041E09DBD5F8C43000247D
:1025740043F48033C5F8C430012385F8B8301248D9
:1025840006F0A2FF204602B0BDE8F0810026276ACB
:10259400227FF3B29A4201D82434D4E707EBC30272
:1025A40057F83310107902F02BFD01360028EFD0D4
:1025B4004FF0FF34E3E76FF07704E0E76FF01504C2
:1025C400DDE700BF442C012064230020B11E00007D
:1025D4008D2300006C2400209024002030B51F4B74
:1025E4008BB005AA03F1100514461868596808331E
:1025F40003C4AB422246F7D11B781022237000217A
:1026040001A809F05DF912220021154809F058F9D2
:10261400102101A809F0CAFB00281BDD0828B8BF57
:10262400082001AB09381A1800200D4912F8013F9F
:102634000AAC04EB131403F00F0328336B4414F8AF
:10264400144C13F8143C013008280C704B7001F141
:102654000201EBD102480BB030BD00BF52F50000BF
:10266400505F01202DE9F04F4FF0000B6E4C87B006
:1026740000264FF0011AB0463546B14623782BB9EF
:102684006A4B02349C42F3D1674832E06378052BED
:102694001BD8DFE803F08E03C68E1D3B402304A83D
:1026A4008DF810B0ADF812308DF814B009F03AF985
:1026B40040B1082304A8ADF8123009F033F908B189
:1026C400ADF812B0BDF81230E37123781C44D5E79D
:1026D400E378002BF9D1A37873B108F101085FFA0C
:1026E40088F8F2E76A68944209D024359D42F9D308
:1026F400002007B0BDE8F08F4D4D4E4BF6E7AB68B8
:10270400002BEAD0414620469847E6E7002DEFD05B
:1027140000222B7F9A42EBD2296AA07801EBC201F6
:102724000B79984201D00132F3E70127E078FBB23C
:1027340000F003008DF81400207994F805C040EAF5
:102744000C20ADF8120094F90200002826DA4FF0AC
:10275400010C07F110000CFA00F010EA0A0F24D162
:1027640043F080008DF8100004A8CDE90213019213
:1027740009F0D8F8DDE90121039BB0B99DF81020D8
:1027840012F0800FA2700A714FF001021DBF1033C6
:10279400DBB29A40BA404AEA020A96E70120B840FE
:1027A40010EA0A0F01D11846DCE70137102FBDD11A
:1027B400B9E7032E1DD1FFF711FF074668B109F0F1
:1027C40046F8019048B11C4809F041F8019A824248
:1027D40003D13946A01C09F068F86FF00201237890
:1027E400091BE21804EB5303D14213D50136F6B2A8
:1027F4006BE7002EF1D1B9F1000F3FF479AFA4EBF0
:10280400090389F80230C3F3072389F8033089F8F0
:102814000480EBE702F801BC13F8010902F8020D89
:10282400E2E7A14651E700BF882300206924002085
:102834006C2400209024002052F50000094B002154
:102844001A4610B51C78844204D15C6814B102EBBA
:10285400811010BD0131042903F14003F2D100209D
:10286400F7E700BF102D01202DE9F34150F8283C73
:102874000446103310F82C6C10D1036950F8202C46
:1028840099073CD502BB13F0040304D11A46194638
:10289400304608F0BBFD002344F8283C54F8283C9B
:1028A40010330ED054F8185C5DB154F81C7C54F805
:1028B400148C0BF015FD00284CD021462B480BF04E
:1028C40008FE02B0BDE8F08150F8241C01AB30468C
:1028D40008F09CFD10B16FF01503DDE7019A54F880
:1028E400243C134444F8243C54F8203C9B1A44F8F8
:1028F400203C54F81C3C134444F81C3CCEE750F8EC
:10290400241C01AB304602F0F1FA0028E3D1019D0A
:1029140054F8243C2B4444F8243C54F8203C5B1BDE
:1029240044F8203C54F81C3C2B4444F81C3C002D37
:10293400B1D0304602F07EFBB5FBF0F303FB10553B
:10294400002DA8D154F8203C002BA4D0304602F02E
:1029540015FBA3E744F8180CA4F1100006F024FEBC
:10296400424639463046A847ABE700BF90240020D2
:102974004B1E012B73B506460D460FD8FFF75EFFBD
:10298400044668B9012D09D101AB012230460DF18D
:10299400030102F0ABFA019B002BF5D102B070BD2C
:1029A4000BF09EFC04F12C0108B1012D05D1084661
:1029B40002B0BDE87040FFF757BF034802B0BDE85E
:1029C40070400BF086BD00BF902400202DE9F74F26
:1029D400064615469846019108F05EFD0446002817
:1029E4005CD14FF02003EFF3118A83F31288BFF315
:1029F4006F8FDFF8B0B000220023584606F0F8FDD0
:102A040070B9DFF8A490A70109EB8414636813F18B
:102A1400100F14D10193584606F0C6FD019B06E041
:102A24000134042C0BF1400BE5D16FF00B038AF356
:102A34001188BFF36F8F184603B0BDE8F08F019B78
:102A44002061C4E902350C9B304663610D9B09F893
:102A54000760A3616FF00F03C4F83C80636002F069
:102A6400E9FA58B1304602F0E5FAB5FBF0F303FB9E
:102A740010551DB1E36B43F00403E36318F0020F38
:102A840007D007F12C01094849440BF022FD00232B
:102A9400CDE7304602F072FA0346C8E76FF00F0341
:102AA400C9E700BF2C2D0120102D01209024002007
:102AB40010B54FF02003EFF3118483F31288BFF3B2
:102AC4006F8FFFF7BBFE50B14368103307D16FF02F
:102AD4008B0300F12C01436003480BF0FAFC84F3F0
:102AE4001188BFF36F8F10BD9024002070B50425AA
:102AF4000E4C4FF02003EFF3118683F31288BFF3DB
:102B04006F8F6368103307D16FF08B0308486360DD
:102B140004F12C010BF0DDFC86F31188BFF36F8FF9
:102B2400013D04F14004E4D170BD00BF102D01202B
:102B34009024002070B50025094C0A4E31462046E9
:102B44000BF0AAFC0122A4F11000114601350BF090
:102B540066FC042D04F14004F0D1002070BD00BFD8
:102B64003C2D01206D28000070B504460E46017905
:102B74001248154608F06DFCE8B194F9002063781A
:102B8400002A11DB202B04D0222B09D06FF0850002
:102B940005E007222968103808F087FE002070BD80
:102BA400638800F8093CF9E7212BEFD1072310389B
:102BB40028603360F2E76FF01200F0E7102E012076
:102BC400014608B5034808F051FC10B1012300F890
:102BD400073C08BD102E01200123016981F84B3008
:102BE4000B6833B191F849301BB1024808310BF03E
:102BF40070BC7047902400200123016981F84A3099
:102C04000B6833B191F848301BB1024808310BF01E
:102C140060BC704790240020002103460C4AA0F8B1
:102C24004810106883F89C10C3F894009088927937
:102C3400A3F8980083F89A2083F89B104022A3F805
:102C44009E1083F8A01003F14C0008F039BE00BFB9
:102C540080ED000038B5056995F89E0088B195F8B7
:102C64009F307BB985F84830D5F8900008F0CDFA4C
:102C7400044600220023044805F1180106F008FE6A
:102C8400204638BD0020FCE79024002013B50469D9
:102C94008DF8071094F89E30A3B194F89F308BB947
:102CA4000DF107010122D4F8900084F8483008F0AF
:102CB400ACFA014640B1212200230C4804F118016A
:102CC40006F0E6FD02B010BD0122D4F8900008F031
:102CD400ECFA0028F6D00122D4F890000DF1070197
:102CE40008F093FA0028E6D1ECE700BF9024002016
:102CF400F0B5D0F88C3005465B6885B01B6A1F7D43
:102D0400384608F0C9FB0646E0B94FF48062A86F64
:102D140003A908F099FA0446A0B18306A5F11803A3
:102D240085F830600193084B08BF00F1FF34039924
:102D34000093224602233846FFF748FE2146A86F37
:102D440008F09EFA05B0F0BD512D0000012310B526
:102D540082F84830136814463BB192F84A3023B1E4
:102D64000A4802F108010BF0B4FBD4F890309A68D9
:102D74001B699A4208D004F118010022BDE81040F2
:102D84000023024806F084BD10BD00BF902400203B
:102D9400002310B50469C4F8A8300C4BC4F8A4008F
:102DA400596804F1A80269B9C3E9002204F10800D2
:102DB40007490BF071FB04F1180006490BF09AFB6C
:102DC400002010BD0A605A60F0E700BF102E0120F9
:102DD400C7B40000F52C000030B54FF4003342684E
:102DE400056942F2A10085B0CDE90103002385F80D
:102DF4009D30106AADF80C100A22007901A908F080
:102E040005FB054C95F89D3023B901200BF0B0FC6F
:102E1400013CF7D105B030BDA186010073B514465D
:102E240002F14C060A1E05461FDD3146D4F88C001B
:102E340008F0EBF9012384F8493023683BB194F896
:102E44004B3023B10E4804F108010BF042FBD4F8D7
:102E54008C104B684A699A1ACB699B1A3F2B04D889
:102E6400012384F8A03002B070BD064B40220093C9
:102E74003146012328460194FFF7A8FDF3E700BF7C
:102E840090240020212E000038B50D4601461E482E
:102E940008F0D4FA044680B3024652F8A439691EF5
:102EA4005B68052929D8DFE801F0202803202529BB
:102EB40014F8061C31B91B6A187BFFF7AFFF012316
:102EC40004F8063C14F85C3CBBB9012304F85C3CF0
:102ED40054F8A43C8BB114F85A3C73B1A4F19C018E
:102EE4000A48BDE838400BF0F4BA1046BDE8384053
:102EF400FFF792BE012304F8053C38BD14F8053CE5
:102F0400002BFAD00023F6E7102E01209024002095
:102F140037B50024084D4FF0FF334FF48062284644
:102F24000649009406F07CFC054928460BF0DEF9BE
:102F3400204603B030BD00BF90240020B8680520AF
:102F440098F50000014807F001BA00BFB8EE000090
:102F540038B5044618B90F4B0F485B689847616849
:102F6400B1F5683F0FD0B1F5680F0CD00B4DA942F5
:102F740009D011F4686107D0214609480BF087F99C
:102F840000232360656038BD1422206808F098FC93
:102F9400F8E700BF10220020A1F500002C5F5CA917
:102FA4001833012008B560B34368B3F5683F0ED009
:102FB400B3F5680F18D0144A934220D000684FF03C
:102FC400FF324FF0FF3306F005FA58B115E0012245
:102FD4000368D3E8EF1F002903D1C3E8E02F0028DA
:102FE400F7D10AD1002008BD0368084A1B7803F50D
:102FF400807352F82330002BF4D00548F3E70548DA
:10300400F1E76FF4E040EEE72C5F5CA900000350A9
:10301400E98FFFFFEA8FFFFF08B520B34368B3F5DC
:10302400683F09D0B3F5680F13D0114A93421DD0FD
:10303400006806F049FA14E000220368D3E8EF1FA1
:10304400012903D1C3E8E02F0028F7D109D00948AA
:1030540008BD00210368084A1B7803F5807342F811
:1030640023100020F4E76FF4E040F1E70348EFE7B2
:103074002C5F5CA9E98FFFFF00000350EA8FFFFF7C
:1030840010B5044618B91D4B1D485B689847636822
:10309400B3F5683F2FD0B3F5680F2CD0194A93428B
:1030A40019D1236803BB4FF0FF324FF0FF332146A1
:1030B400154806F0A9F808B923681BB90F4B134843
:1030C4005B68984714220021206808F0F9FB4FF44C
:1030D4006863636008E0B3F5683F0DD83A2B03D00A
:1030E40040F6BA629342DED120680BF018F96368A7
:1030F40043F03A03636010BD054AF3E71022002051
:10310400A1F500002C5F5CA918330120C7F500006D
:103114003A00003A08B506494023142205480BF04A
:10312400A8F8BDE808400449044807F081B900BF85
:10313400182E012018330120C0EE0000D4EE000048
:10314400F7B5224E306883685B6C03B198473068EA
:1031540083685B6B002B31D11D4C1E4D3068836836
:103164009B69002B2DD001220DF1070198470128FE
:1031740027D1236843B92B681BB369681A688B424B
:103184002A6008BF6A602360134A9DF8070011880B
:103194007F2904D823684F1C0B44178018720A280F
:1031A400DCD1002023681188186059600B494D68F0
:1031B4004DB9C1E9003310802060CEE7984700285C
:1031C400CAD103B0F0BD2B604B60F4E78C3701200B
:1031D40034330120443301204C4601203C33012088
:1031E40010B5044B044618688368E1B25B689847DD
:1031F400204610BD8C370120F8B505461646084612
:103204004FF02003EFF3118783F31288BFF36F8F1E
:103214001B490B684BB11B4C62689A4205D00022D3
:103224001A60626862B9C4E90033174A136853B973
:1032340087F31188BFF36F8F18460B603360F8BDB6
:1032440013606360F1E7D2F804C01C68634514603E
:1032540008BF546087F31188BFF36F8F5C680B60FD
:10326400A042D8BF00F1FF3403F1080122462846EA
:1032740008F01BFB0023601C2B550123DEE700BF75
:1032840038330120443301203C330120002337B577
:103294001C462349234AC1E90033C2E90033224AC8
:1032A4004868146088B9C1E900220133082B02F18F
:1032B4008802F5D11D4D1E4828600AF08EFF38B9EA
:1032C4004FF0FF34204603B030BD02604A60ECE7A3
:1032D4000020FFF7F1F804460028F1D1286883683C
:1032E40023B19B6C13B1224612499847286883681E
:1032F4005B6B0BB1984748B1286883689B69002BC6
:10330400FAD001220DF107019847F4E700220A4B95
:1033140028681A8083689B6A002BD3D09847D1E72A
:10332400443301203C3301204C3301208C370120ED
:10333400E8E90000453100004C46012041F2044315
:103344002DE9F043ADF54F7DADF8083040F6061396
:103354000025ADF80C30DFF80C91434BD9F8001080
:103364001B68424E0822A3EB06080B784D7001330C
:103374000B7098FA98F34B808B8828465BBA8B8045
:1033840007F0FDFE31464246ADF8100007F0F7FEA7
:1033940002271FFA88F440BA04F10A035BBA022236
:1033A400ADF810000DF1120106A8ADF8123008F0C6
:1033B4007CFA0822D9F800100DF11A00ADF8127049
:1033C40008F073FABDF8120006AB083080B231463B
:1033D4004246ADF81200184408F067FABDF81230FE
:1033E4003A461C44A0B22C4606ABADF8120004A920
:1033F400184408F05AFABDF8123040F2C9113B449F
:103404009BB2ADF81230009305AA06AB5BA8FDF79A
:103414006DFF059B164E174FADF81230BDF81230F4
:10342400A34203DC0DF54F7DBDE8F0833368022130
:103434005B68A4B903A89847BDF8125033682D1BE4
:103444007C2DA8BF7C255BAA101929465B68984788
:103454003368012138465B682C449847DEE702A8AC
:10346400E9E700BFD4370120A4370120625F0120BF
:10347400D8370120F4F50000F0B50C68164F85B07C
:1034840002380D46C4F580610090144B381903AA24
:103494000131FDF7A9FF0446D0B92B68039A134400
:1034A400022B2B6011D93E88023B76BAB6B29E42FB
:1034B4000BD13246B91C07F062FE30B9022E04D992
:1034C4002B689A1E2A60FC540124204605B0F0BDE6
:1034D4004FF0FF34F9E700BFAB600120AE64012078
:1034E40007B5CDE90001694602480AF062FE03B05F
:1034F4005DF804FBA43701202DE9F04F4FF0FF34B1
:10350400C7B00B46012103940594002402460091A0
:103514002EA80421CDE906440AF0AAFB4022214644
:103524001EA808F0CDF98C4B03211A93052304221D
:103534001B938A4B8A481C938A4B03AD1F938A4B77
:103544000DF1140A219308AB2293884BCDE929018C
:103554002493874B0DF11009CDE9263ACDE92B359B
:10356400259107AB1AA92EA8CDF87490209208F0E3
:10357400E1F810B303240A217E480AF021FE022157
:103584007D48FFF7ADFF21467A480AF0FBFD44B9B8
:1035940003217348FFF7A4FF784B764819680AF0B3
:1035A400FBFD0A2173480AF013FEFFF7C7FE0698D5
:1035B40007F0AEFE47B0BDE8F08F2B68DDE9088761
:1035C4000133D7D0B8F1000FD4D0D9F80000FCF7FC
:1035D400B9FF06A9C0B2FEF753FB04460028C9D1BF
:1035E4002B68664E002B4BD1069D30602846D5F8DB
:1035F40008B007F0CEF8624A0146284607F00FF8F3
:1036040008B10124B7E7DAF800305B45B2D85D4A67
:1036140014605D4A136032685A4D3A44296806982A
:10362400013A08F068F800282860A3DB069807F040
:10363400AEFEB7FBF0F303FB1070DFF84CA1336868
:10364400C5B27D1B1F44DAF800309F4238BF00200A
:103654005FFA80FB069807F09AFE012806D90698BF
:1036640007F095FE013818EA000F53D12B46424665
:103674003168069807F062FE00287FF47BAF2CE0E7
:10368400326893427FF477AF3F4A3B4412689342D7
:10369400C1D96FE7AF42069888BFEFB207F07EFE4C
:1036A400402201460AA808F00BF93A4641460AA806
:1036B40008F0FBF83B46316806980AAA07F03EFE7C
:1036C40008B1044657E73368B8443B443360ED1B04
:1036D400069807F05CFEA842DCD9BBF1000F1BD1B1
:1036E4003368DAF800205B442B44934233607FF460
:1036F40042AF234B06981A68114607F0FCFF0028D6
:10370400FFF67FAFDAF800200699D9F8000008F038
:1037140083FCD6E74027DBE7069807F03FFE082244
:1037240001460AA808F0CCF85A4608EB05010AA895
:1037340008F0BBF8069F3168384605EB010807F02E
:1037440026FE414603460AAA384607F0F7FD00283C
:103754007FF410AFC4E700BFF6F50000DBDE000025
:1037640005F60000FCF50000E5DE000001F60000AF
:10377400E1DE0000A437012047F30000A037012058
:1037840098370120943701209037012038B5054639
:103794000A4C0A2120460AF013FD02210848FFF7CB
:1037A4009FFE294620460AF0EDFC20460A210AF035
:1037B4000FFDBDE83840FFF7C1BD00BFA4370120AD
:1037C40047F30000002307B502210093044A4FF495
:1037D400A47304480AF0FEFC03B05DF804FB00BFC8
:1037E400625F0120A43701202DE9F0410729044636
:1037F400B0B040F2F480037813F0FD0F40F0EF8096
:103804004388A1F108055BBA9BB2AB42C0F0E780E4
:103814008D4B00F10807186083885BBA8380FFF73B
:10382400D1FFA688012E40F0E480E37943B1012B57
:1038340000F0D880082030B0BDE8F041FFF7A6BF03
:103844002478002CF6D1314680480AF0B9FC0621D0
:103854007F48FFF745FE05217C480AF0ADFCDFF800
:10386400F4817A4F002500E001252946204606F020
:10387400BFFE08A9C0B2FEF703FA064600284FD1DE
:103884002946204610AA02F073FE012805D1202300
:103894003146089810AA07F03CFD109B434526D0FA
:1038A4000023089E009332464FF6FF7310A90AA81E
:1038B40006F0CEFE002839D10DF11E0307AA09A98E
:1038C4000AA806F013FF002830D1BDF81E30102BD3
:1038D400F2D1BDF81C30202B28D13046099918AA02
:1038E40007F017FD061E18BF0126764220E0294680
:1038F400204602F053FE584B1B6898420CD14023DB
:103904000021019320AB00930846CDE90311089BE5
:10391400029110AAFCF76CFE504B1B688342BFD087
:10392400002DA1D0002C50D12C469BE74FF0FF3640
:10393400089807F0EDFC142138460AF041FC0521F3
:103944004748FFF7CDFD214638460AF025FC0421FF
:103954004448FFF7C5FD294638460AF01DFC5EB908
:1039640004214148FFF7BCFD18AB0A9320233748D4
:103974000AA90B930AF01AFC07213C48FFF7B0FD93
:10398400BDF85630402101939DF85530384A0093D4
:1039940020A89DF8543000F075FD169B4BB1421ED3
:1039A4003E2A06D820AEC0F14001324A304400F02D
:1039B40069FD20A807F04BFF014620A8FFF790FD02
:1039C400142138460AF004FCAAE705211F480AF02E
:1039D400FBFB01211D480AF0FBFBFFF7AFFC30B0F5
:1039E400BDE8F0812946384630B0BDE8F041FFF724
:1039F40083BDE6B9E379012B05D0052B05D0002B57
:103A04007FF418AFEBE7304615E7304608F00BFBC0
:103A1400012801D10A200EE73046FFF7B7FE4FF424
:103A24000050002106F050F9012007F05EFC2A4600
:103A340039462046054BFCF797FD0028CFD130B01E
:103A4400BDE8F041FFF77ABCD4370120A437012048
:103A540009F600003DB8F396B0200020702700203E
:103A6400F6F5000010F6000015F600001AF6000046
:103A740022F600002EF6000001232DE9F341002573
:103A84000646DFF8C080304C88F800302F4B304FAA
:103A94000095186098F8003013B902B0BDE8F081C1
:103AA4002C4BC5F58061C3F80046C3F80446C3F83F
:103AB4000846C3F80C46C3F81046C3F81446C3F8C6
:103AC4001846C3F81C4603F58053C3F80046C3F8F0
:103AD4000446C3F80846C3F80C46C3F81046C3F8B6
:103AE4001446C3F81846C3F81C46336801AA0131CA
:103AF400781998470028019B01DC002BCAD00544A3
:103B04002BB940F201439D42C4D10025C2E73B7862
:103B1400062B09D17B78092B0BD10023009369462E
:103B2400A81EFFF7A9FC04E0042B02D17B78142B18
:103B3400F5D00128E9D1009907480239FFF754FE6E
:103B4400E3E700BFAA6001203546526ED837012052
:103B5400AC64012000800150AD60012001491022B5
:103B64000A60704710ED00E072B6404080F311889F
:103B7400BFF36F8F01B5FEF73DF8002802D0BFF305
:103B84004F8F30BFBDE8014062B6BFF36F8F7047FF
:103B940072B6494081F3118801B5FEF72BF800286D
:103BA40002D0BFF34F8F20BFBDE8014080F31188DE
:103BB40062B6704740B2002807DB01234109034A7B
:103BC40000F01F00834042F82130704700E100E01C
:103BD40040B200280CDB01220649430900F01F0013
:103BE4008240203341F82320BFF34F8FBFF36F8F00
:103BF400704700BF00E100E0054B420953F8222062
:103C0400012300F01F0003FA00F01040704700BFCA
:103C140000E100E040B2002801F10101ACBF00F175
:103C24006040064B4FEA4111C9B2ABBF00F5614099
:103C340000F00F0080F800131954704714ED00E0F1
:103C440030BFFFF7FDBF00BF0B4A08B50B4B22F096
:103C54007F029A60BFF34F8FBFF36F8FD3F8882032
:103C640022F47002C3F8882005F004FA06F0D8F8AC
:103C740000F0EEF905F048FA0000000000ED00E065
:103C8400094A0A49936809681867596708494B68DB
:103C940043F080534B60002383F31188BFF36F8F8D
:103CA4009368586F704700BF4844012050F20000E9
:103CB40000ED00E013498A684FF030001044EFF340
:103CC400098C80E8F01F202080F31288BFF36F8FE7
:103CD4000D4F4FF000664A698A603E60106F002302
:103CE400136780F3118802F1300090E8F01F8CF321
:103CF400098802F1000004B507F07FFDBDE8044027
:103D0400704700004844012004ED00E01EF0040F59
:103D14000CBFEFF30880EFF30980816911F8021CEE
:103D24000229FFD001B507F059FD01BD42F8203C3E
:103D3400009B0B4942F81C3C019B21F0010142F815
:103D4400183C029B42F8081C42F8143C4FF0807364
:103D540042F8043C0023203A02650367704700BF21
:103D6400B9A90000084B9860036E83F30B881046D2
:103D740081F30988002163B681F31188BFF36F8F43
:103D84000022002306F016FE4844012001B5EFF39B
:103D94000580A0F110004FEAC0000449014409C99C
:103DA4009847BDE8014002490847000078EA00004E
:103DB400B93D0000044B99685869884203D003490F
:103DC4004FF080520A6070474844012004ED00E03F
:103DD400154B9A6A12F0007F9A6A14BF1E201D20A8
:103DE40012F0807F9A6A18BF1F2012F4801F9A6A0B
:103DF40018BF022012F4002F9A6A18BF212012F46F
:103E0400802F9A6A18BF222012F4003F9A6A18BFC2
:103E1400232012F4803F9A6A18BF24206FEA0242DA
:103E24006FEA12429A62704700ED00E010B5184B39
:103E34000246986A9C6A10F4805F14BF172016200B
:103E440014F4006F9C6A18BF1820A40508D5986A5A
:103E5400000404D51AB19A6A22F400429A62192025
:103E64000B4B9A6A12F4806F9A6A18BF1A20D20513
:103E74000CD49B6A13F4005F18BF1C20044A936A95
:103E840043F47F43936200230B7010BD1B20F5E7BE
:103E940000ED00E010B51C4B0246986A9C6A10F0D5
:103EA400100F14BF1120102014F0080F9C6A18BFC3
:103EB4001220A40709D5586B986A000604D51AB1D4
:103EC4009A6A22F080029A6213200F4B9A6A12F0C7
:103ED400010F9A6A18BF142012F0200F9A6A18BFB3
:103EE4001520D40658BF9B6A074B9A6A920642BFB4
:103EF4005A6A22F400525A629A6A42F0FF029A62A3
:103F040000230B7010BD00BF00ED00E070B5444B02
:103F140006465B6800258AB0C3F3080385F311885D
:103F2400BFF36F8F02F07F40B0F17F4F11D102F0E9
:103F34000C0008280DD010074CBF0E4601250022A6
:103F4400033B8DF80720032B05D8DFE803F01E5C44
:103F540060592E46F3E700249DF807309BB92022D0
:103F6400314602A807F0A1FC099B002D53D0C3F3EE
:103F7400080222B96FEA53236FEA432309932046C8
:103F840002A907F029FC0AB070BD254BDA6A910733
:103F9400E1D4DA6A002ADEDBDA6A5200DBD55A6938
:103FA400B16942F480725A61BFF34F8FBFF36F8FD0
:103FB4005A6931F8021C22F480725A61BFF34F8FA0
:103FC400BFF36F8F4DF60272914209D09A6AD2B252
:103FD40042B101200DF10701FFF75CFF0446BBE786
:103FE4003468B9E79A6A12F47F4F05D001200DF1C5
:103FF4000701FFF71BFFF1E79B6AB3F5803FAAD3E4
:10400400FFF7E6FEEAE700200DF10701E4E70020F0
:104014000DF10701EDE723F4FF7323F00103ADE78E
:1040240000ED00E0044B5A6942F010025A615A69EB
:1040340042F480625A61704700ED00E0EFF30880BB
:10404400EFF3098101B57246FFF760FF01BD00BFC0
:10405400002320210348C2180133452B82F80013A2
:10406400F9D1704700E100E0002080F31488BFF329
:104074006F8F002080F30A8880F30B88FDF7FEFD24
:1040840000200E490860BFF34F8F0D4880F3088865
:1040940000F03EF8202080F311880A484FF40061B4
:1040A400401880F30988EFF314800221084380F359
:1040B4001488BFF36F8FFFF7C7FD000094ED00E095
:1040C400F8A10520B8700520BFF34F8F0549064BB2
:1040D400CA6802F4E0621343CB60BFF34F8F00BFA2
:1040E400FDE700BF00ED00E00400FA0500231846D8
:1040F4000649D1F89020C2F30722934200DB7047AF
:10410400C1F89830C1F8A0000133F6E700ED00E0F3
:1041140010B572B6002484F31388FFF7E7FF234633
:104124004FF0FF300C4A03F120010133102B42F809
:104134002100F8D100234FF0FF30074A03F160015A
:104144000133102B42F82100F8D162B6BFF34F8F30
:10415400BFF36F8F10BD00BF00E100E0084B9B6808
:1041640083420BD1EFF3058343B1064B5A6842F007
:1041740080525A605A6A22F400425A6205F0DEBD47
:104184004844012000ED00E01FB5094C094A2346CC
:104194000121094800F0EAF800230393074B0121A9
:1041A400E41A01A80193029400F0EAF804B010BDE7
:1041B4000000072000200020E4EE000090240020EE
:1041C40010B50C7A0B6804F01F0223F01F031A4386
:1041D400CB68640923F01F03054943EA440343F011
:1041E4000103C1F89800C1F89C20C1F8A03010BDAB
:1041F40000ED00E02DE9F04F0F46144606464FF05F
:1042040000084E4D85B0B84580F29480D6F80490ED
:10421400B9F1000F36D0B9F11F0F40F2898019F0BF
:104224001F0F40F08580D6F800A01AF01F0F7FD131
:10423400504607F0E6FA834609EB0A00013807F016
:10424400E0FA834574D11BF1160F71D05C456FDD24
:10425400C5F898B0D5F89C10C5F898B0D5F8A0303A
:1042640021F01F0143F01F0AD6E900321A44994293
:1042740002F1FF391ED1CA4508D131465FFA8BF0ED
:1042840007F0C8FA08F101080C36BCE73146C5F856
:1042940098B0D5F89C3022F01F0203F01F0313439B
:1042A400C5F89C30E0B207F0B5FA10F1160F3FD014
:1042B400441CE7E7C5F898B0D5F8A020013B23F0EB
:1042C4001F0302F01F021343CA453146E0B2C5F88A
:1042D400A030E8D007F09EFA10F1160F28D0C5F8E8
:1042E40098B0D5F89C209DF808300AF1FF3A62F3A3
:1042F40004038DF80830D5F8A0309DF808205B0839
:1043040063F347128DF80820D6E900321344009372
:1043140023F01F03411C5344A3EB0903C8B223F049
:104324001F030728039303D86946FFF749FFBFE734
:104334006FF01504204605B0BDE8F08F00ED00E0F5
:104344000522044BC3F89420BFF34F8FBFF36F8F44
:10435400704700BF00ED00E0BFF35F8F0022024B07
:10436400C3F89420704700BF00ED00E010B5034C83
:104374002278FFF73FFF207010BD00BFAD68012019
:104384002DE9F74F294D8A4606464FF00008AB4603
:10439400274FD0451BDAD6F80490B9F1000F3FD06F
:1043A40031680846019107F02CFA0199044609EB9B
:1043B4000100013807F025FA84424FF014021D4B26
:1043C40008D002FB08F36FF015024BF8032003B08A
:1043D400BDE8F08F14F1160F2C60F8D01978A142C3
:1043E400F5DD02FB08B0C7F89840C7F89840D7F845
:1043F4009C4000F10801007B64F304000871D7F8C5
:10440400A0000C79400860F347140C71D7F89C1095
:1044140021F01F016960D7F8A01021F01F01296164
:1044240008F1010814350C36B3E700BFDC3701206E
:1044340000ED00E0AD68012038B50E4D2C68082C65
:1044440015D80020FFF788FF0B4B0C4AC3F8C02097
:10445400844205D10A4B00201C70FFF771FF38BD60
:10446400696801EB0011FFF7ABFE0130F0E74FF094
:10447400FF30F4E7F0EE000000ED00E0AAFF440096
:10448400AD6801200CB410B586B009B90DF10B006C
:104494000024CDE9040109AB089A009404A9054855
:1044A4000393FDF74FF9049B1C7006B0BDE8104060
:1044B40002B07047D7B800000146014809F0A4BF14
:1044C40078230020014902480AF003B81838012073
:1044D40028250020020600F07F0312D5082B05D101
:1044E400010700F00F0306D50E48704710F0780F4F
:1044F40012D100F00F034C2000EB43100A4B184478
:104504007047082B05D1020700F00F0306D50748B2
:10451400704710F0780FF6D000207047044800EB85
:10452400431070473C390120F03701205C3A0120E8
:104534005C39012000220023014805F001B800BFC6
:104544007823002010B5054CFFF7F4FF20B1011DBE
:10455400204609F09CFEF7E710BD00BFF8220020BA
:1045640007B5002300220E4801A904F04DFE90B1C6
:10457400FFF7E8FF00220023094801A904F044FEE4
:1045840038B90423019840600374FFF795FFFFF7DF
:1045940099FF002001E00198406003B05DF804FB3E
:1045A400F822002010B50446FFF7DAFF60B10022BC
:1045B40004720274FFF780FF044B93F824301BB19C
:1045C400BDE81040FFF77EBF10BD00BFF0370120EB
:1045D400F8B5877806463846FFF77CFF3B06044665
:1045E400F57812D5002D43D1FFF7BAFF0346002812
:1045F4003ED00122A5770274032202739C60FFF768
:104604005BFFBDE8F840FFF75DBF4DB1012D2FD131
:10461400FFF7A6FF034658B3657705740573EDE706
:10462400FFF79EFF20B3B278124B12F0800F02F016
:10463400080111D041B1D3F8A836E3600123037413
:10464400022384600373DAE7142102F00F0201FBF2
:104654000233D3F80836F0E711B1D3F8A837ECE702
:10466400142102F00F0201FB0233D3F80837E4E708
:10467400F8BD00BF00600350012807B50FD0022821
:104684000ED048B9002200230848CDE9002345F69E
:104694009A12002305F08EFD03B05DF804FB0020A0
:1046A40003B05DF804EBFFF77DBF00BF8822002054
:1046B40013B5002201213720FFF7ACFA3720FFF7AA
:1046C40079FA124803F068FF114B98421AD100247A
:1046D400104803F083F9104804F0FAFB4FF0FF335D
:1046E4004FF480620D490E48009405F099F80D4985
:1046F4000B4809F0FBFD0C480C4909F0CDFE20469F
:1047040002B010BD6FF00400FAE700BF6D4700006F
:104714000000AD0B63F6000018EF0000B86C052034
:104724002825002058F6000018380120F148000020
:10473400002310B50B49D1E8EF2F012A03D1C1E8BA
:10474400E03F0028F7D10CD151F8044C143920462D
:1047540006F0DBFC783004D12046BDE8104006F0BA
:10476400AFBC10BD10380120F0B5064689B0142244
:10477400002103A807F0A4F83378013B052B21D8C6
:10478400DFE803F07A0314146A16032300248DF877
:104794001430FFF7E5FE0346A0B100F108020474EB
:1047A400DDE9050182E8030018461DE00423EDE776
:1047B400B7783846FFF78EFE837A044623B1013B6F
:1047C400022B43D909B0F0BD3B06F57813D5002D73
:1047D400F8D1FFF7C5FE03460028F3D00122A577E0
:1047E4000274032202739C60FFF766FE09B0BDE801
:1047F400F040FFF767BE55B1012DE3D1FFF7B0FEDE
:1048040003460028DED0657705740573EBE7FFF7F0
:10481400A7FE07460028D5D0012303740223846031
:10482400037304F10C01B07809F0A1F9134AE168AB
:10483400B2F88C328B4206D95B1AA2F88C3204F09F
:10484400E1F83846D0E7A2F88C52FAE7304609B0CE
:10485400BDE8F040FFF7BCBE01A804F0ADF89DF838
:104864000530052B04D19DF8043013F0600FA9D056
:10487400034B012405938CE702248AE7F0370120D7
:104884005C39012038B5002464F07F00C0B2FFF722
:1048940021FE013407F02CF8082CF5D100240E4D2C
:1048A400E0B2FFF717FE036903B90561013407F0AD
:1048B4001FF8082C05F14005F2D1084807F018F854
:1048C400074BD3F87C2212B9064AC3F87C22064867
:1048D40007F00EF8002038BD803E01203C3901204D
:1048E400F0370120803A01205C3A01202DE9F043A1
:1048F4000746AD4CDFF8B48285B0FFF71BFE10B954
:1049040005B0BDE8F08394F82530027C00F1040979
:104914003BB9002A00F088804946A44809F0B7FC56
:10492400EBE7042A44D8DFE812F07F000500FE001C
:1049340014012F01037B8568032B39D8DFE803F0CA
:10494400023F5C616E6908220021304606F0B8FF20
:10495400974B9848D3F880243270D3F8842472702B
:10496400D3F88824D3F88C1442EA01227280D3F855
:104974009024D3F8941442EA0122B280D3F8982404
:10498400D3F89C34314642EA03230822F380EA60D8
:1049940006F08BFF2B680021687A984796F900305F
:1049A400002B08DBF38833B1A4F88C3204F02AF826
:1049B40049464046B2E70023A4F88C32F8E76B7FFF
:1049C400002BF5D02B7F002BF2D000264FF0FF32C6
:1049D4006E774FF0FF3378482E7706F09FFF6B69B0
:1049E40001A901936B68CDE90236687A03F016FEDB
:1049F400714806F095FFDBE701212B68687A984738
:104A0400D6E7AB7A6BB9EB7F5BB96B484FF0FF32FB
:104A14004FF0FF3306F082FF04F028F8664806F0F2
:104A24007FFF02212B68E9E7027A042AC0D8DFE875
:104A340002F055031F636F0003F078FD054600285C
:104A4400B6D103F01FFD01235C49D1E8EF2F002A02
:104A540003D1C1E8E03F0028F7D1A9D141F8085CAF
:104A640041F8105CE0691439636106F0D1FA9FE7FC
:104A7400002565F07F00C0B2FFF72CFD037A13B167
:104A8400407A04F0A1F90135082DF2D194F854319B
:104A94001BB194F8550104F097F90025E8B2FFF72B
:104AA40019FD037A13B1407A04F08EF90135082D0B
:104AB400F4D194F874321BB194F8750204F084F9BB
:104AC400002003F015FD012384F825302368002B12
:104AD4003FF46EAF00210220984769E7002584F86F
:104AE400255004F02FF9FFF723FE2368002B3FF431
:104AF4005FAF29460420EFE7002B3FF459AF03F0E2
:104B04001FFD2368002B3FF453AF00210520E3E78A
:104B14002268002A3FF44CAF002B3FF449AF002138
:104B24000620904744E707F110054FF0FF334FF09C
:104B3400FF32284606F0F2FEFFF7A4FE284606F0F0
:104B4400EFFE57F8283C002B3FF432AF0021012040
:104B5400C2E794F874327BB1012584F8895284F851
:104B64008852FFF7FDFC38B1154A0574057382605D
:104B7400FFF7A2FCFFF7A6FC57F8283C002B3FF4F4
:104B840017AF00210A20A7E704F08AF904F0DAF845
:104B940003F06EFCFFF7D6FCFFF774FE04F078F91F
:104BA400084803F0F9FC03E7F0370120F82200205D
:104BB40000600350F4370120283801201038012008
:104BC4005C3A01206D47000038B5154D95F8244036
:104BD40024BB05F1380009F0A2FB022000F040FBE1
:104BE40022460121E8613620FFF714F804F050F959
:104BF400FFF748FE044610B9012385F82430094B19
:104C04001B680BB1FFF75EFC074BD3F80034DB07DE
:104C140002D50020FFF730FD204638BD0024FBE715
:104C2400F0370120782300200070035010B54FF0B6
:104C3400FF324FF0FF330B4806F070FEFFF782FCA3
:104C440003F074FC08B104F07DF80024FFF770FD54
:104C540004F026F9044880F82440383006F060FE59
:104C6400204610BD28380120F0370120074B93F867
:104C740024203AB193F82530002B14BF00206FF0A4
:104C8400120070476FF01200704700BFF037012028
:104C940038B5104B044693F82430C3B10578284640
:104CA400FFF718FC10B96FF0150038BD4572237971
:104CB4008372638843602078618810F0080F02D102
:104CC4004B1E0B42EFD108F04DFF0020EDE76FF0D3
:104CD4001200EAE7F037012038B5124B054693F885
:104CE4002420CAB193F82530B3B1FFF7F3FB04468F
:104CF400A8B1837A012B12D007D9023B012B07D923
:104D040000206369E060A36138BD03F0B7FEF7E7F4
:104D1400284603F023FEF3E76FF01200F4E76FF088
:104D24001500F1E7F037012038B50E4B054693F82E
:104D3400242082B193F825306BB1FFF7CBFB68B127
:104D440015F008040AD1284603F02AFE284604F088
:104D54008FF8204638BD6FF01200FBE76FF01500A6
:104D6400F8E700BFF037012038B50C4B054693F83F
:104D740024200C4662B193F825304BB1FFF7AAFB0F
:104D840048B144B1284603F0F1FD2070002038BD3D
:104D94006FF01200FBE76FF01500F8E7F037012021
:104DA40070B5134E044696F82430C3B1FFF792FB56
:104DB4000546B8B1230705D4204603F0F1FD20468B
:104DC40004F056F82B7A83B901232B7296F8253018
:104DD4000BB9002070BD204603F0F6FFF9E76FF031
:104DE4001200F7E76FF01500F4E76FF07700F1E7D2
:104DF400F03701202DE9F043DFF8E4801E4698F8EF
:104E0400243007468946154685B0002B61D098F8B2
:104E14002530002B5DD003065ED5FFF75BFB04460F
:104E2400002859D0037A002B56D04FF0FF334FF0AF
:104E3400FF3208F1380006F071FDA37F4BB108F191
:104E4400380006F06DFD6FF00A04204605B0BDE899
:104E5400F083A37AC5B13BB301234FF00008A377D5
:104E6400384601A9CDE90195CDF80C8003F0D6FBB5
:104E74001C4B984229D084F81E801EBB6FF004049A
:104E8400194806F04DFDE0E7E27F02B1E577002B1B
:104E9400E2D103F0FBFDB842DED003F0E7FD124897
:104EA40006F03EFD0024D0E7B8F80A30AB42F0D952
:104EB4006268B5FBF2F302FB1353002BE9D1012323
:104EC400E377E6E7C6F80080D8E706B1356000244A
:104ED400D6E76FF01204B8E76FF01504B5E700BF2A
:104EE400F03701200000AD0B283801202DE9F041F6
:104EF4001D46204B174693F824200E46002A33D033
:104F040093F8253083B3030631D401B97FBBFFF78F
:104F1400E1FA044658B3037A4BB34FF0FF334FF032
:104F2400FF32154806F0FAFCE368B8469F4228BFF2
:104F3400984646B93FB905B12B600F4806F0F0FC1E
:104F44000020BDE8F08142463046A16906F0ADFC80
:104F5400A3694344A361E368A3EB0803E360002D62
:104F6400EBD0C5F80080E8E76FF01200E9E76FF0D6
:104F74001500E6E7F03701202838012070B51E4DF2
:104F8400034695F8242082B395F825206AB31B06BE
:104F94002ED4FFF79FFA044650B3037A43B34FF07D
:104FA400FF334FF0FF3205F1380006F0B7FCE36839
:104FB400B3B9012663692677A361637F83B1FFF7E1
:104FC400CFFA30B905F1380006F0AAFC6FF00B00F7
:104FD40070BD067484600673FFF76EFAFFF772FA09
:104FE400064806F09DFC0020F2E76FF01200EFE7A0
:104FF4006FF01500ECE700BFF037012028380120DE
:1050040010B5084B0C4693F824302BB1FFF762FA25
:1050140028B10460002010BD6FF01200FBE76FF0B0
:105024001500F8E7F0370120014B1860704700BF06
:10503400F037012008B5074B93F8243023B1FFF76C
:1050440049FA20B1406808BD6FF01200FBE76FF029
:105054001500F8E7F0370120084B70B5C31A0D4668
:1050640007499B10044659434022064806F0B6FC03
:105074002B4601462046BDE8704018479440012065
:10508400B76DDBB6A0E90000402373B50B4C009369
:10509400041B0B460D460A49A41061430646094AFF
:1050A400094806F0C8FC011E05DA30462B4602B05A
:1050B400BDE87040184702B070BD00BF94400120A5
:1050C400B76DDBB6A7BA0000A0E900002DE9F843EC
:1050D4000022012106460520FEF79CFD114802F03E
:1050E40013F8114B984219D102F01EF800244FF026
:1050F4001C090C27DFF834803569414609FB04504C
:1051040005F073FF002807DB012307FB04551C444B
:10511400042CAB67F0D10020BDE8F8836FF00400E5
:10512400FAE700BF695100000000AD0B20EF00005A
:1051340001460C2300224B4370B50848C418783349
:105144001844D4E91C56226706F035FC2DB13246CA
:105154002B46BDE870400248184770BD94400120BA
:10516400A0E90000062812D8DFE800F0040F1111AE
:10517400110D0B00064B986F10F0070007D1FFF7D5
:10518400D7BF0220FBE70320F9E70120F7E77047C8
:105194009440012008B54FF02003EFF3118183F30D
:1051A4001288BFF36F8F124A136843F00200106035
:1051B400DA0708D481F31188BFF36F8FBDE8084084
:1051C400012008F087BB4FF05023D3F80C24D3F808
:1051D4000C34DB07EED5074806F0EDFB81F31188AC
:1051E400BFF36F8FBDE808400020FFF7A1BF00BFE9
:1051F400344101200C4101201FB500220123CDE9D7
:1052040002236B46084ACDF800D0CDF804D006F04E
:1052140041FC002805DB4FF480420023684604F07B
:10522400E7F905B05DF804FBDDBA000010B54FF0F6
:105234002003EFF3118483F31288BFF36F8F074ABF
:10524400136823F00201DB07116002D4012008F087
:10525400A0FB84F31188BFF36F8F10BD344101208C
:10526400C3B21C20014A03FB002070479440012074
:105274002DE9F041012207463749D1E8EF3FC1E863
:10528400E02F0028F9D133B9344935484B60CB605D
:105294008A6005F0BDFE7B1E012B2BD8012F07D1A0
:1052A4004FF05023D3F81C3403F00303022B21D016
:1052B40009F016F80546F8B92A4B1B78E3B14FF00C
:1052C400502302220646C3F808234FF05024DFF887
:1052D4009880D4F81824D4F81834D20316D503F0DF
:1052E4000303022B01D0012F10D175B386F311886B
:1052F400BFF36F8FBDE8F0814FF02003EFF3118609
:1053040083F31288BFF36F8F0125DEE7C5B1304602
:10531400FEF73EFCD4F81835DBB2012BD9D1D4F812
:105324000421002AD5D00022C4F80421D4F8042191
:105334000222C4F818252022C8F88021A360C8E7F7
:105344000021212004F0C0FCE4E74FF050230222A6
:10535400C3F80423CEE700BF904001208040012021
:10536400B0400120B568052000E100E000F1744080
:1053740000F5A6000A289ABF024B33F910006FF01B
:105384000F007047F8F20000024B0B60012313601A
:10539400704700BFDCEF00000048704768EF000072
:1053A400054B994206D14FF0FF324FF0FF332030C6
:1053B40004F01EB9704700BF0000AD0B38B5056995
:1053C400044695F84030FBB9284606F08EFB0022CF
:1053D400002305F1300004F00BF9AB6B4BB90B4D16
:1053E40002F0D4FDA84209D102F0F2FD0022084BDC
:1053F4001A702069BDE8384006F08FBB002140F2E6
:10540400676004F061FCEBE738BD00BF0000AD0B42
:10541400AE680120F8B50669054696F84040D4B94F
:10542400304606F062FB0D4F06F1300004F0BCF884
:105434003B785BB932460A49686802F02FFDFFF7F2
:1054440095FFB0FA80F304465B093B70286906F0C7
:1054540064FB2046F8BD0024FBE700BFAE680120D2
:10546400E3BA00002DE9F84F0D1E06469046D0F829
:10547400049069DBD9F82830AA189A4264D8C5F395
:105484000B02B8F1000F5FD0C8F30B0313435BD1D9
:10549400FFF7C0FF044660BB306906F038FB2146C5
:1054A400304606F080FB044600BB306906F01DFB65
:1054B400DFF89CA0D9F82830434520D108F0EFFA52
:1054C400C346074639463069FFF76AFF57452BD173
:1054D400B8EB0B085D44EDD1306906F01EFB0121E9
:1054E400304606F060FB002C08BF0446306904F027
:1054F4005BF83046FFF762FF2046BDE8F88FB8F549
:10550400803F09D3ABB2A3B92946012002F0AEFD16
:105514004FF4803B0746D5E7B8F5805F09D20D49C3
:105524003069FFF73DFF0B4F3846FFF71FFF044676
:10553400D2E7C5F30B000028F1D1294602F096FD0D
:105544004FF4805B0746BDE76FF01504D4E700BF56
:105554000000AD0B0400AD0BF0B5436887B01D6BC4
:1055640004460021284603AA06F036FC002866DB20
:10557400039B2A681979186800F04CFC00285EDB4C
:105584004FF050270125002201212B20FEF742FB7A
:105594006668226930463D49C7F8B85502F07EFC7A
:1055A4000223C7F8B835FFF7E1FE002847DB0022E5
:1055B400AB23204603A9CDE9032205928DF80C30D4
:1055C40006F0B6FA00283ADB232009F0D1F8737FFD
:1055D400023BAB4205D9357F033D012D8CBF00252D
:1055E4000125204606F0F4FA002828DBC2B2C0F3F5
:1055F4008010854201AD24D12046FFF7DFFE03264B
:105604000023CDE9026304939F232046CDF804D000
:105614008DF80C300595FFF7FDFE024678BB204659
:1056240003A906F085FA05462046FFF7C7FE4DBBE1
:105634006068324669462C3006F010F910BB07B09A
:10564400F0BD002382F04002ADF800308DF8002058
:105654000122204603A9CDE90223CDF804D0059305
:105664008DF80C20049506F063FA0028E7D1204653
:1056740006F0AEFA0028E2DBC307F8D4BCE7204604
:10568400FFF79CFE6FF01200D9E700BFE3BA0000F9
:105694002DE9FF4705460F461E469046002A7FD057
:1056A400002B7DD0042B01D99A0779D1BB0777D180
:1056B400002F6A6874DB926ABB19934270D828463B
:1056C400FFF7A8FE044600285FD1286906F01FFAF8
:1056D4002146284606F067FA0446286906F005FACA
:1056E400002C40D1032E1CD83A460421684608F009
:1056F400D3F9044601462869FFF752FE2A4B9C421F
:1057040031D132464146684606F0CFF83A46042184
:10571400684608F0BEF9044601462869FFF740FED2
:1057240021E008F06043B3F1005F35D0DFF878A0E2
:10573400102EB14628BF4FF0100941464A4668462C
:1057440006F0B3F83A461021684608F0A2F9044678
:1057540001462869FFF724FE544504D1B6EB090637
:10576400C8444F44E4D1286906F0D7F901212846FA
:1057740006F019FA0646286903F016FF002C14BF38
:1057840020463046FFF7F2FD04462846FFF716FE92
:10579400204604B0BDE8F0873A4631464046B8E7B3
:1057A4006FF01504F4E700BF0000AD0B2DE9F04FD6
:1057B400074688461C46164685B0002A00F09980A4
:1057C400002B00F0948000294268C0F29280926A13
:1057D400CB18934200F28D80FFF71CFE054600288B
:1057E4007ED1C8F1000505F00305386906F07DF99E
:1057F400A54228BF2546734203F0030306F00309BC
:1058040058BFC3F10009C9F1000909F00309A14512
:1058140028BFA146631BA4EB090424F0030423F06E
:10582400030AA245C8BFA24603F0030BC8BFA3EBFB
:10583400040BBAF1000F18D006EB090308EB0502BC
:1058440051461846019308F027F904460146386981
:10585400FFF7A6FD284A94423BD14D4505D0019B54
:1058640052461946701906F009F8BDB1C5F104098C
:105874000421A8EB090202A808F00EF90446014627
:105884003869FFF78DFD1C4B9C4222D109F10803B6
:105894002A4630460DEB030106F007F8BBF1000F72
:1058A40016D0082108EB050252440DEB010008F064
:1058B400F3F8044601463869FFF772FD0E4B9C422B
:1058C40007D10AEB05005A4602A9304405F0EDFF62
:1058D400094C386906F021F92046FFF747FD0546D3
:1058E4003846FFF76BFD284605B0BDE8F08F1D462E
:1058F400F9E76FF01505F6E70000AD0B024B0B60FE
:1059040001231360704700BFE4EF000000487047B4
:10591400ECEF00002DE9F7431C460B44B3F5802F50
:105924000D4617462CD800292ADB41EA040616F056
:10593400030625D10422FF210DEB020005F0C0FF70
:10594400DFF8448008EB0509A64209D33A4608EB80
:1059540005033C44A2420CD1002003B0BDE8F0830F
:10596400042209EB06010DEB020005F077FF043673
:10597400EAE7197812F8010B014003F8011BE9E783
:105984006FF01500E9E700BFAF680120104608B5C5
:105994001A460B44B3F5802F07D8002905DB044BC6
:1059A400194405F082FF002008BD6FF01500FBE7E5
:1059B400AF6801208B18B3F5802F70B51BD8002970
:1059C40019DB42EA0106C6F30B06A6B90B4C21F417
:1059D4007F6121F00F01150B0C44AE4201D1002070
:1059E40070BD20464FF48052FF2105F069FF013657
:1059F40004F58054F1E76FF01500F1E7AF6801207A
:105A040008B54FF48022FF21024805F059FF002019
:105A140008BD00BFAF6801204FF4802301480B602C
:105A2400704700BFAF680120024B0B600123136075
:105A3400704700BF38410120004870471CF0000047
:105A440010B501220648114608F0E9FC08F014F8E4
:105A5400044C206008F00DF86060002010BD00BF09
:105A6400404101203841012070B50C46154608F02C
:105A740000F829460646204606F0C5F808B3B4FBEC
:105A8400F6F306FB1343E3B9B5FBF6F306FB135336
:105A9400BBB9AE4201D9002070BD4FF0FF324FF0C8
:105AA400FF33094803F0A4FD07F0E3FF0646204650
:105AB40001F024FFAD1B3444F9D1034803F074FD15
:105AC400E9E76FF01500E7E7404101202DE9F041D7
:105AD4000D461946284616461C4606F094F8C8B3E7
