:020000040100F9
:108600003DB8F39600000000000200007847030028
:108610000000000002040000000000000000000054
:10862000FFFFFFFFFFFFFFFFFFFFFFFFFFFFFFFF5A
:10863000FFFFFFFFFFFFFFFFFFFFFFFFFFFFFFFF4A
:10864000FFFFFFFFFFFFFFFFFFFFFFFFFFFFFFFF3A
:10865000FFFFFFFFFFFFFFFFFFFFFFFFFFFFFFFF2A
:10866000FFFFFFFFFFFFFFFFFFFFFFFFFFFFFFFF1A
:10867000FFFFFFFFFFFFFFFFFFFFFFFFFFFFFFFF0A
:10868000FFFFFFFFFFFFFFFFFFFFFFFFFFFFFFFFFA
:10869000FFFFFFFFFFFFFFFFFFFFFFFFFFFFFFFFEA
:1086A000FFFFFFFFFFFFFFFFFFFFFFFFFFFFFFFFDA
:1086B000FFFFFFFFFFFFFFFFFFFFFFFFFFFFFFFFCA
:1086C000FFFFFFFFFFFFFFFFFFFFFFFFFFFFFFFFBA
:1086D000FFFFFFFFFFFFFFFFFFFFFFFFFFFFFFFFAA
:1086E000FFFFFFFFFFFFFFFFFFFFFFFFFFFFFFFF9A
:1086F000FFFFFFFFFFFFFFFFFFFFFFFFFFFFFFFF8A
:10870000FFFFFFFFFFFFFFFFFFFFFFFFFFFFFFFF79
:10871000FFFFFFFFFFFFFFFFFFFFFFFFFFFFFFFF69
:10872000FFFFFFFFFFFFFFFFFFFFFFFFFFFFFFFF59
:10873000FFFFFFFFFFFFFFFFFFFFFFFFFFFFFFFF49
:10874000FFFFFFFFFFFFFFFFFFFFFFFFFFFFFFFF39
:10875000FFFFFFFFFFFFFFFFFFFFFFFFFFFFFFFF29
:10876000FFFFFFFFFFFFFFFFFFFFFFFFFFFFFFFF19
:10877000FFFFFFFFFFFFFFFFFFFFFFFFFFFFFFFF09
:10878000FFFFFFFFFFFFFFFFFFFFFFFFFFFFFFFFF9
:10879000FFFFFFFFFFFFFFFFFFFFFFFFFFFFFFFFE9
:1087A000FFFFFFFFFFFFFFFFFFFFFFFFFFFFFFFFD9
:1087B000FFFFFFFFFFFFFFFFFFFFFFFFFFFFFFFFC9
:1087C000FFFFFFFFFFFFFFFFFFFFFFFFFFFFFFFFB9
:1087D000FFFFFFFFFFFFFFFFFFFFFFFFFFFFFFFFA9
:1087E000FFFFFFFFFFFFFFFFFFFFFFFFFFFFFFFF99
:1087F000FFFFFFFFFFFFFFFFFFFFFFFFFFFFFFFF89
:10880000508B00219D4502019F61030171450201CA
:10881000714502017145020171450201000000002D
:10882000000000000000000000000000B94102014B
:108830007145020100000000614102017145020121
:108840003942020139420201394202013942020130
:108850003942020139420201394202013942020120
:1088600045670301394202013942020139420201DE
:1088700015670301394202013942020139420201FE
:10888000394202012F6703013942020139420201D4
:1088900039420201394202013942020139420201E0
:1088A00039420201394202013942020139420201D0
:1088B00039420201394202010000000000000000BC
:1088C00000000000000000000000000000000000A8
:1088D0000000000000000000000000000000000098
:1088E0000000000000000000000000000000000088
:1088F0000000000000000000000000000000000078
:108900000000000000000000000000000000000067
:108910000000000000000000000000000000000057
:108920000000000000000000000000000000000047
:108930000000000000000000000000000000000037
:108940000000000000000000000000000000000027
:108950000000000000000000000000000000000017
:108960000000000000000000000000000000000007
:1089700000000000000000000000000000000000F7
:1089800000000000000000000000000000000000E7
:1089900000000000000000000000000000000000D7
:1089A00000000000000000000000000000000000C7
:1089B00000000000000000000000000000000000B7
:1089C00000000000000000000000000000000000A7
:1089D0000000000000000000000000000000000097
:1089E0000000000000000000000000000000000087
:1089F0000000000000000000000000000000000077
:108A0000DEE61E284CBBCE8F023500003C00000085
:108A1000C846030001000000008800010088000132
:108A2000FFFF0291000000000000000000000000B5
:108A30000000000000000000000000007BB972B9D7
:108A40000029BEBF00204FF0004106E008BF00280B
:108A50001CBF6FF000414FF0FF3000F057B8ADF190
:108A6000080C6DE904CE002909DB002B1ADB15F098
:108A700073FFDDF804E0DDE9022304B070474042F3
:108A800061EB4101002B1BDB15F066FFDDF804E014
:108A9000DDE9022304B0404261EB4101524263EB45
:108AA00043037047524263EB430315F055FFDDF873
:108AB00004E0DDE9022304B0404261EB410170476C
:108AC000524263EB430315F047FFDDF804E0DDE9B4
:108AD000022304B0524263EB4303704753B94AB9CF
:108AE000002908BF00281CBF4FF0FF314FF0FF30B6
:108AF00000F00CB8ADF1080C6DE904CE15F02CFFB8
:108B0000DDF804E0DDE9022304B07047704700BFE0
:108B10002DE9F00791E8F807B2E802105B1854EB72
:108B20000C04B2E802104D4156EB0C06B2E80210FC
:108B30004F4158EB0C08B2E8021059EB01095AEB0F
:108B40000C0A80E8F80780410130BDE8F007704763
:108B50002DE9F00791E8F807B2E802105B1A74EB10
:108B60000C04B2E802108D4176EB0C06B2E802105C
:108B70008F4178EB0C08B2E8021079EB01097AEB2F
:108B80000C0A80E8F80780414042BDE8F0077047D2
:108B90002DE9F007524290E87800B1E880071740CD
:108BA000DB1918EA020854EB080419EA020955EB2C
:108BB00009051AEA020A56EB0A0678C090E878001E
:108BC000B1E8800717407B4118EA020854EB08041B
:108BD00019EA020955EB09051AEA020A56EB0A06D8
:108BE00078C080410130BDE8F00770472DE9F007FB
:108BF000524290E87800B1E880071740DB1B18EA82
:108C0000020874EB080419EA020975EB09051AEA6F
:108C1000020A76EB0A0678C090E87800B1E880078F
:108C20001740BB4118EA020874EB080419EA02096C
:108C300075EB09051AEA020A76EB0A0678C080414C
:108C40004042BDE8F00770472DE9F00152424FF075
:108C5000040890E8300091E8C000A31B1340E41A18
:108C6000F618EB1B1340ED1AFF1830C0C0C1B8F165
:108C70000108EED1BDE8F001704700BF00B592E8F1
:108C8000DC072DE9DC07B1E8805702B4A7FB0251ED
:108C90000A95A8FB020B09180020E7FB03105BEB09
:108CA000000B00204041E9FB02B00B91A8FB0351EF
:108CB000401800214941EAFB02011BEB050B00258E
:108CC000E7FB04B568410025E7FB0605694100257F
:108CD0006D41E8FB0615CDF830B0A9FB03B6891944
:108CE0000026EAFB0316754100267641ECFB03568D
:108CF00010EB0B005FF0000BE8FB040B51EB0B01DA
:108D00005FF0000BE9FB041B55EB0B055FF0000B5C
:108D1000EAFB045B56EB0B065FF0000B5BEB0B0B07
:108D2000ECFB046B0D90ACFB0230059C2D18002071
:108D3000EEFB025046410020E9FB04605BEB000BB8
:108D400000204041EAFB04B05B180021E7FB04313E
:108D50004D410021E8FB0451069C4E410021E8FBF7
:108D600004615BEB010B0021E9FB04B148410021E8
:108D70004941EAFB04010E93A7FB0432079CB61895
:108D80000022E7FB04625BEB020B0022E8FB04B26B
:108D900050410022E9FB0402514100225241EAFB0A
:108DA0000412049CED180023E9FB04535E410023E8
:108DB000EAFB0463089C5BEB030B0023E7FB04B3B3
:108DC00058410023E8FB040359410023E9FB041345
:108DD0005A4100235B41EAFB04230F955DF8049B95
:108DE00099E80006DDF80080A9FB08541BEB040B92
:108DF0000024EAFB08B4DDF8108060410024ECFB9D
:108E0000080461410024EEFB081462410024E9FBE0
:108E10000824634100246441EAFB0834DDF804803F
:108E200076190025EEFB08655BEB050B0025E9FBD9
:108E300008B568410025EAFB0805DDF814806941A2
:108E40000025ECFB08156A410025EEFB08256B4167
:108E50000025E9FB08356C4100256D41EAFB08451A
:108E60000F96DDF80880AEFB087680190026E9FB36
:108E7000080671410026EAFB0816DDF818807241E9
:108E80000026ECFB082673410026EEFB08367441F1
:108E90000026E9FB0846754100267641EAFB0856A4
:108EA000DDF80C801BEB070B0027ECFB08B77841C3
:108EB0000027EEFB080779410027E9FB08177A41F4
:108EC0000027EAFB0827DDF81C807B410027ECFB2C
:108ED00008377C410027EEFB08477D410027E9FB6E
:108EE00008577E4100277F41EAFB086708B000BDB4
:108EF0002DE9F14F87B0FFF7C1FEDDF81C8008F1C6
:108F0000200888E8FF00FFBC87E87F08BDE8F08FF5
:108F100000B591E84C57A2FB02410194A2FB034526
:108F200024190020E2FB06506D417F416418029431
:108F30000021E2FB0801A3FB034B654103950024DC
:108F4000E3FB060440417F41091900246441E2FB30
:108F50000914FF0750EB0B0004900025E2FB0A45C3
:108F60005FF0000BE3FB081B49415FEA370714EB96
:108F70000B045FF0000BE3FB094B55EB0B055FF0B7
:108F8000000B5BEB0B0BE2FB0C5BFF0F0020E2FB2B
:108F90000EB000225141E6FB061205910021E6FBCE
:108FA000084164417F416D180021E3FB0A515BEBEE
:108FB000010B0021E3FB0CB1484100214941E3FBD7
:108FC0000E010023E6FB09531BEB030B0023E6FB1A
:108FD0000AB358410023E6FB0C03594100235B41CF
:108FE000E6FB0E13FF07544106946D417F41A8FB39
:108FF0000826554107950022E8FB09B25BEB0B0BF5
:109000007F4180180022E8FB0A0251410022E8FB60
:109010000C125A4100235B41E8FB0E230024E9FBBC
:109020000E340025E9FB0A1552190025E9FB0C2531
:109030006B410025EAFB0C356C4100256D41EAFBD4
:109040000E45FF075BEB060B0026ECFB0E5640417E
:10905000494152415B4164416D417641AEFB0EE8AE
:1090600048F100087F00A9FB0979784151EB09011B
:10907000AAFB0A7A7A4153EB0A03ACFB0C7C7C41D5
:1090800055EB0C0556EB0E0648F1000700BD00BF7E
:109090002DE9F14F87B0FFF73BFFDDF81C8008F1A9
:1090A000200888E8FF00FFBC87E87F08BDE8F08F54
:1090B00030B44FF0000310F8014B11F8015B013A96
:1090C00084EA050443EA0403F5D1A3F101034FEA5E
:1090D000D37030BC704700BF4FF0000310F8012B75
:1090E000013943EA0203F9D1A3F101034FEAD37036
:1090F000704700BF30B411F8014B12F8015B6C40AF
:1091000000F8014B013BF6D130BC70472DE9F00768
:1091100091E8F807B2E802105B1854EB0C04B2E8CF
:1091200002104D4156EB0C06B2E802104F4158EBCD
:109130000C08B2E8021059EB01095AEB0C0A8941FC
:10914000B3F1FF3374F1FF3475F1FF3576F10006AA
:1091500077F1000778F1000879F101097AF1FF3A17
:1091600051F100015B184C414D4156F1000657F199
:10917000000758F1000859EBD1795AEB010A80E851
:10918000F807BDE8F00770472DE9F00791E8F80708
:10919000B2E802105B1A74EB0C04B2E802108D41C5
:1091A00076EB0C06B2E802108F4178EB0C08B2E8BF
:1091B000021079EB01097AEB0C0A89415B184C41EA
:1091C0004D4156F1000657F1000758F1000859EBE0
:1091D000D1795AEB010A80E8F807BDE8F00770473B
:1091E00018EB040859EB05095AEB060A5BEB070B71
:1091F0005FF0000C4CF1000C18EB050859EB060968
:109200005AEB070A5BEB070B50EB0C005FF0000C0E
:1092100051EB0C0152EB0C0263414CF1000CB8EB2A
:10922000070879F100097AF1000A7BEB040BA841E9
:10923000B141A241B3416CF1000CBBEB050BB04155
:10924000B941AA41BB416CF1000C4CF001068CF015
:10925000020718EB060859EB6C095AEB6C0A7BEB1A
:109260006C0B70EB6C0471EB6C0572EB670653EBE7
:109270006C076CEB6C0C18EB0C0059EB0C015AEB07
:109280000C025BF1000354F1000455F1000556EBAC
:10929000DC7657EB0C0770472DE9F14F87B0FFF7ED
:1092A000EDFCDDF81080DDF81490DDF818A0FFF774
:1092B00097FFBDE8000FFFF793FF03B05DF8048B45
:1092C00088E8FF00BDE8F08F2DE9F14F87B0FFF788
:1092D0001FFEDDF81080DDF81490DDF818A0FFF710
:1092E0007FFFBDE8000FFFF77BFF03B05DF8048B45
:1092F00088E8FF00BDE8F08F2DE9F047944D86B077
:109300000023C41DEA7D07460E4624F00704CDE97C
:1093100003332B788DF812206A7F8DF80D308DF88D
:1093200014206B78AA7F8DF80E308DF81520AB785D
:10933000EA7F8DF80F308DF81620EB7895F8202015
:109340008DF810308DF817202B7995F824208DF8A2
:1093500011300AB18DF81330002E03A94FF0000828
:109360000CBF2046002000F0E1FD95F800906B78DE
:109370000444C24699445FFA89F95FFA88F34B4581
:10938000C0F0CE800334002E4946524624F0030438
:1093900014BF0020204601F01DF9A978044471B1E2
:1093A000E01CEB78EA7D002E20F003041A4414BF81
:1093B000002020466B8AD2B201F0AEFA044495F840
:1093C00025308BB1297C79B195F82630E01C002B33
:1093D00020F0030414BFFF222522002E0CBF2046DC
:1093E000002001F02FFC0444297D81B1AB7823B922
:1093F00095F825305BB12B7C4BB1E01D002E20F0A1
:10940000070414BF0020204606F000FE0444514B20
:109410001B685BB1297949B1E01C002E6A7D20F000
:10942000030414BF00202046984704444A4B1B689D
:1094300053B1A97D41B1E01C002E20F0030414BFFC
:109440000020204698470444444BD3F80080B8F1EC
:10945000000F0ED0E97D61B1E01C002EAB7E20F044
:1094600003042A7E009314BF002020466B7EC04771
:10947000044495F8243063B1297951B1E01C002EE1
:109480002A7F20F0030414BF0020204601F010FCC6
:10949000044495F82130002B4ED0E01D20F0070445
:1094A000002E47D1204610F051F920464FF4897222
:1094B00095F8211017F000FA044495F822100029BD
:1094C00040D0E01D002E4FF0FF0220F0070814BF2F
:1094D0000020404617F0F0F908EB000495F8203022
:1094E00001200334A97F24F007041944334644F0D3
:1094F0000404C9B2224601F029FC04443EB94046A6
:1095000010F03CF9FB2195F8220010F03DF9AB6A10
:1095100013B106B9AC622834E01B06B0BDE8F08791
:109520002B7A08F10108EA79A979687917F0F4F83B
:10953000824422E70020B9E7002EBED1304610F069
:1095400005F9BAE7002EE2D1304610F017F9DEE750
:10955000980600214C0000215400002150000021F9
:109560008FB572B61A4BDD6AE5B9BFF34F8F194953
:10957000194BCA6802F4E0621343CB60BFF34F8F0C
:1095800000BFFDE7B4FBF6F4D3B20132002CF9D1F1
:1095900003F110026A4402F80C4C0A2433B901A802
:1095A000A847E2E7044600220A26EDE7013BDBB2CA
:1095B00003F110020DEB0206C2B2B2FBF4F704FB9A
:1095C00017223032B0FBF4F006F80C2CE6E700BFAF
:1095D0009806002100ED00E00400FA051FB51A4CC2
:1095E00002A8237A8DF80930E3798DF80830A37941
:1095F000ADF80C306379ADF80A300EF06FF918B1A0
:10960000B0210320FFF7ACFFE36801A801930EF03F
:109610007BF908B1B421F4E7012368468DF80030E6
:1096200018F04AFC08B1B821EBE7A07E0EF07EF9F5
:1096300008B1C121E5E7607E0EF072F908B1C221E0
:10964000DFE704B010BD00BF9806002138B505461D
:10965000002841D014F0DEFB10B94FF0FF3038BDC8
:1096600013F07CFAB0F5FA7FF7D81D4C1D48E5627F
:1096700000F0ACFA1C4902201C4A00231C4D44F6A1
:10968000011C84F8303084F8313084F8253084F8B7
:109690002630A36284F824302362C4E9001241F624
:1096A0004C52C4E902024FF40272C4E9045201228E
:1096B000C4E906C2EFF3108472B601F0E7FB0D486F
:1096C00001F0AAFC18B1CE210320FFF749FF002CBE
:1096D000C5D162B62046C2E76FF01500BFE700BFF4
:1096E00098060021DD95000101010100001B1B030C
:1096F00003001F00A199000110B5002840F08880E8
:10970000464C94F83030002B7FD181B1002A6AD0CA
:1097100001390F297CD8DFE801F0081518282B52F1
:109720005A73315D606E373D494E137823700121C5
:109730000020FFF7E1FDB0F5803F6CDA012384F8EB
:10974000313010BD13786370F1E79378002B4AD065
:10975000D378002B47D013781A2B44D953781A2B7F
:1097600041D91068C4F80500E1E71368E360DEE75B
:109770001378E278934236D3A370D8E71378A278AF
:10978000934230D8E370D2E71378A27893422AD874
:10979000E375CCE7137833B35378013BDBB2F82B96
:1097A00021D8136823831B0CA376C0E71078E076DA
:1097B0000EF0F0F9BBE71378ABB12377B7E7137876
:1097C00094F825200AB1012B0DD92374AFE7138833
:1097D0006382ACE713782371A9E794F82410137817
:1097E00021B9012B04D86FF01500AAE7002BFAD09D
:1097F000137863759BE71378082BF4D8A37596E765
:109800001388FF2BEFD8237591E74FF0FF3098E7CF
:109810006FF02C0095E76FF00B0092E7980600219F
:1098200070B50D460646F0B1E9B111F007041AD142
:1098300000F000F9D0B130460E4E14F02FFB214657
:1098400086F832002846FFF757FD0EF0CFF996F85C
:109850003200B16A0EF0E4F8FFF7C0FE01232046A3
:1098600086F8303070BD6FF01500FBE74FF0FF3029
:10987000F8E700BF9806002110B5094C94F8303085
:109880002BB10EF0E9F894F8320014F023FB01F04C
:1098900011FB01F0D7FB002084F8300010BD00BFA1
:1098A0009806002150B1074B03F1140253F8041B32
:1098B000934240F8041BF9D1002070476FF0150067
:1098C000704700BF01C80301074B93F8312010B562
:1098D00032B993F830401CB90EF06CF8204610BD38
:1098E0004FF0FF30FBE700BF98060021074B93F8CD
:1098F000312010B532B993F830401CB90EF06EF833
:10990000204610BD4FF0FF30FBE700BF9806002156
:10991000074B93F8312010B532B993F830401CB999
:109920000EF00AF8204610BD4FF0FF30FBE700BFF5
:1099300098060021074B93F8312010B532B993F8FF
:1099400030401CB918F002FB204610BD4FF0FF302C
:10995000FBE700BF98060021074B93F8312010B5B4
:1099600032B993F830401CB918F0F3FA204610BD14
:109970004FF0FF30FBE700BF98060021074B93F83C
:10998000312010B532B993F830401CB918F0E4FA20
:10999000204610BD4FF0FF30FBE700BF98060021C6
:1099A00037B5114C256801A801F002FB034618B138
:1099B000052816D035210BE0019A022A05D0032A8A
:1099C000F1D1226852B92D2102E022681AB928216A
:1099D0000420FFF7C5FD2360A847E4E701202360CA
:1099E000FAE703B030BD00BFCC06002107C8024B28
:1099F00083E8070000207047D0060021054B9B68D4
:109A000010B51BB992210420FFF7AAFDBDE8104054
:109A1000184700BFCC060021054BDB6810B51BB909
:109A200098210420FFF79CFDBDE81040184700BFB7
:109A3000CC060021044B586828B1986818B1D86842
:109A4000003818BF01207047CC06002173B5031DF4
:109A50002B4E04463360304605F066F80228054672
:109A600006D12749204615F0F2F8284602B070BD0D
:109A700004283DD133780A2B0AD0262B1BD031463F
:109A8000204615F091F9B0F5817F28D373210FE0BE
:109A900005213E2015F0AEF80028F0D1B38801A9C9
:109AA0006846ADF8003015F05EFE0028D3D0542192
:109AB0000820FFF755FD1A213E2015F09BF80028DD
:109AC000DDD1F388694601A8ADF8043011238DF883
:109AD000063015F06AFE0028BDD06621E8E70028B0
:109AE000B9D0A178207815F085F80028BDD1B2E76B
:109AF0000828BAD10249204615F0E1F8B5E700BFC1
:109B0000DC060021074B4FF0FF3141F6FF72C3E93D
:109B1000001205490022C1E900221F21C3E90212F7
:109B2000704700BF00000021E40700213F280CD847
:109B300001380B4BC0F3421200F01F0053F82230E3
:109B400023FA00F000F001007047FF2806D04038EB
:109B5000044BC0F3421200F01F00EFE701207047F2
:109B600000000021E4070021074B01460068496816
:109B70001A4603C240F48C221A6041F0107242F47B
:109B8000FF625A60704700BF000000210246024B8E
:109B90000068516803C37047E40700210246024B86
:109BA0000068516803C37047080000210138064B64
:109BB000C0F3421200F01F0003EB82039B6823FAFC
:109BC00000F000F00100704700000021014B186018
:109BD000704700BFEC07002110B5FFF793FF17F0A7
:109BE00063FC034B04461B6803B19847204610BD35
:109BF000EC07002138B5274B0446D3F8A022D3F850
:109C0000A412013106D1D3F8A8324FF6FF719BB2EE
:109C10008B423DD0D3073BD51E4DD5F8A422D5F8B5
:109C2000A832C4F80120A4F80530C3F3072363F079
:109C30003F03A371D5F89032013323D0D5F8943285
:109C400001331FD0D5F8983201331BD0D5F89C32A0
:109C5000013317D0002001F0F3FA98B9D5F890023B
:109C6000D5F89412D5F89822D5F89C32C4F807009C
:109C7000C4F80B10C4F80F20C4F8133001230020DF
:109C8000237038BD10220021E01D14F0F1FAF5E731
:109C90000023F4E70000FF0170B5274D10220021DA
:109CA0000446D5F8A06214F0E3FA10220021A018AF
:109CB00014F0DEFAD5F8803201330BD1D5F88432B6
:109CC000013307D1D5F88832013303D1D5F88C326E
:109CD00001330BD0D5F88002D5F88412D5F888224C
:109CE000D5F88C3220616161A261E361002001F04E
:109CF000A7FA08B9F3071CD40F4BD3F8902201320E
:109D00000BD1D3F89422013207D1D3F89822013233
:109D100003D1D3F89C2201320BD0D3F89002D3F8B0
:109D20009412D3F89822D3F89C3220606160A2602C
:109D3000E360002070BD00BF0000FF0180B588B067
:109D400000AF786039603B681B88BB83BB8BC3F373
:109D50000E037B837B68DB7C184615F030FD0346E1
:109D60003B837B681A883B8B1344FB827B681833E8
:109D70003B617B8B3A691344FB603B8BFA6812882A
:109D800092B21A44FB8A13445A1EFB8A92FBF3F3E5
:109D90009BB2FA8A02FB03F37B817A8B7B891344A3
:109DA000FB837B685B88FA8B9A420AD2B7F91C2046
:109DB0000A4B13401AB2B7F91E3013431BB2FB8390
:109DC00005E0BB8BDB439AB2044B1340FB833B683B
:109DD000FA8B1A8000BF2037BD4680BD0080FFFF90
:109DE00090B589B000AFB9607B600346FB73134642
:109DF000BB73BB689B79082B03D9DA211720FFF7C7
:109E0000AFFBFB7B484A52F82330002B03D0DB2109
:109E10001720FFF7A5FBBB68DB79002B7FD07B68A1
:109E20001C68BB68DB79184616F0BBFA034623446E
:109E3000BB61BB689B79022B38BF0223DBB21A4699
:109E4000BB6913445A1EBB689B79022B38BF02239F
:109E5000DBB25B421340BB61BB689B881A46BB68A0
:109E60009B7913445A1EBB689B795B4213407B610C
:109E70007B694FF6FE72934203D9E6211720FFF764
:109E80006FFB97F8303083F00103DBB2002B3BD03F
:109E9000BB68DB79184616F084FA03465B42BA6960
:109EA00013443B61FB7B20493A6941F823207B69DD
:109EB0009AB23B691A80BB68DA793B699A703B6950
:109EC0000122DA703B69BA7B1A71BB681B681B0CF4
:109ED0009AB23B69DA80BB681B689AB23B691A8107
:109EE0000023FB610AE03A69FB6904335B00134419
:109EF0004FF6F0725A80FB690133FB61BB68DB7976
:109F00001A46FB699342EED3BB68DB791A467B693C
:109F100002FB03F3BA691A447B681A6000E000BFD1
:109F20002437BD4690BD00BFF007002180B5AAB020
:109F300002AF786039603B689B781A463B685B7873
:109F40001344FF2B04D940F203111720FFF708FB3D
:109F50003B681A783B685B789A4204D940F2071153
:109F60001720FFF7FDFA7B68C7F898307B68002B55
:109F70000CBF0123002387F89F307B6803F00703A1
:109F8000002B04D04FF48C711720FFF7E9FA00235F
:109F900087F89E302C220021CA4814F069F93B68EA
:109FA000597807F18C0300221A605A609A60C64BF8
:109FB000C7F88C304FF45A73A7F89030082387F80D
:109FC00092300B4687F8933007F1980097F89E205F
:109FD00007F18C0197F89F30009303460020FFF7AC
:109FE000FFFE3B685A7897F89E30134487F89E30FE
:109FF0003B68997807F18C0300221A605A609A60D6
:10A00000B24BC7F88C304FF47E73A7F8903008231A
:10A0100087F892300B4687F8933007F1980097F84D
:10A020009E2007F18C0197F89F3000930346012092
:10A03000FFF7D6FE3B689A7897F89E30134487F86E
:10A040009E303B68D97807F18C0300221A605A6071
:10A050009A609F4BC7F88C304FF4B073A7F89030DC
:10A06000082387F892300B4687F8933007F198025F
:10A0700007F18C0197F89F300093134600220220CD
:10A08000FFF7AEFE3B68197907F18C0300221A60D6
:10A090005A609A608F4BC7F88C309023A7F89030A5
:10A0A000082387F892300B4687F8933007F198021F
:10A0B00007F18C0197F89F3000931346002203208C
:10A0C000FFF78EFE3B68597907F18C0300221A6076
:10A0D0005A609A60804BC7F88C30A823A7F890305C
:10A0E000082387F892300B4687F8933007F19802DF
:10A0F00007F18C0197F89F3000931346002204204B
:10A10000FFF76EFE3B68997907F18C0300221A6015
:10A110005A609A60714BC7F88C30082387F89230E8
:10A120000B4687F893303B689B79002B04D00DF0E9
:10A1300025FD0346A7F8903007F1980207F18C013E
:10A1400097F89F300093134600220520FFF748FE42
:10A150003B68D97907F18C0300221A605A609A6033
:10A160005F4BC7F88C308023A7F89030082387F81E
:10A1700092300B4687F8933007F1980207F18C0173
:10A1800097F89F300093134600220620FFF728FE21
:10A190003B68197A07F18C0300221A605A609A60B2
:10A1A000504BC7F88C307023A7F89030082387F8FD
:10A1B00092300B4687F8933007F1980207F18C0133
:10A1C00097F89F300093134600220720FFF708FE00
:10A1D0003B68597A07F18C0300221A605A609A6032
:10A1E000414BC7F88C304FF4C473A7F89030082364
:10A1F00087F892300B4687F8933007F1980097F86C
:10A200009E2007F18C0197F89F30009303460820A9
:10A21000FFF7E6FD3B685A7A97F89E30134487F8BB
:10A220009E303B68997A07F18C0300221A605A60CD
:10A230009A602E4BC7F88C304FF49073A7F890308B
:10A24000082387F892300B4687F8933007F198027D
:10A2500007F18C0197F89F300093134600220920E4
:10A26000FFF7BEFD3B68D97A07F18C0300221A6024
:10A270005A609A601E4BC7F88C30B823A7F890300C
:10A28000082387F892300B4687F8933007F198003F
:10A2900097F89E2007F18C0197F89F3000930346B2
:10A2A0000A20FFF79DFD3B68DA7A97F89E30134449
:10A2B00087F89E30D7F898207B68D31A1846A037C5
:10A2C000BD4680BDF0070021C5670101115E010197
:10A2D000A11B0101C7210201A17B0101AD220201E5
:10A2E000B1220201096C01018D6B01015D6C01015C
:10A2F000B56C010180B586B000AF78600B46FB708D
:10A300007B684FF6FF721A80FB78224A52F823309E
:10A310007B617B69002B01D1002336E07B699B7850
:10A320003B617B691B793A69B3FBF2F2396901FB46
:10A3300002F29B1AFB73FB7B1A464FF6F0717869A9
:10A3400015F0D6FF0346BB73BB7BFF2B01D1002367
:10A350001BE07B691B799AB2FB7B3969C91ABB7B0D
:10A360000B443969B3FBF1F1386900FB01F15B1A69
:10A370009BB213449AB27B681A807B681B88BA7BB5
:10A380001946786916F032F8034618461837BD4664
:10A3900080BD00BFF007002180B584B000AF034648
:10A3A0000A46FB8013467B717B79264A52F823309C
:10A3B000FB60FB68002B01D100233EE0FB88B3F576
:10A3C000706F04D34FF409711720FFF7C9F8FB88A9
:10A3D0001946F86815F0B5FF0346FB72FB7AFF2BB0
:10A3E00006D0FB7A1946F86815F0E8FF034624E02A
:10A3F000FB88FA68927893FBF2F101FB02F29B1A58
:10A40000BB72BB7A1A464FF6F071F86815F070FF10
:10A410000346FB72FB7AFF2B01D100230DE0FA7A91
:10A42000BB7A9A4202D0FB680022DA70FA7AFB8883
:10A430001946F86815F0DAFF034618461037BD468E
:10A4400080BD00BFF007002180B584B000AF034697
:10A450000A46FB8013467B717B790D4A52F8233004
:10A46000FB60FB881946F86815F06BFF0346FB722A
:10A47000FB7AFF2B01D1002305E0FB7A1946F8682F
:10A4800015F09CFF034618461037BD4680BD00BF3F
:10A49000F007002180B586B000AF03460A46FB8076
:10A4A00013467B717B79174A52F823307B61FB8816
:10A4B0001946786915F045FF0346FB74FB7CFF2BBA
:10A4C00002D143F2020319E07B69DB881B047A693D
:10A4D00012891343FB60FB7C1946786915F06EFF07
:10A4E0000146FA88FB6810469847FB7C7A6904337A
:10A4F0005B0013444FF6F0725A8000231846183759
:10A50000BD4680BDF007002180B584B000AF786003
:10A510007B689B791A461C4B53F82230FB60FB6822
:10A52000002B26D105232BE07B68DB79FB727B684F
:10A53000DB790133DAB27B68DA71FB7AFA680433CB
:10A540005B0013445B884FF6F072934211D0FB7AA4
:10A55000FA6804335B0013445A887B689A80FB7A5C
:10A560001946F86815F02AFF02467B681A60002336
:10A5700006E07B68DA79FB689B789A42D4D305239E
:10A5800018461037BD4680BDF007002180B483B067
:10A5900000AF0023FB710023FB710DE00C4B1B6827
:10A5A0005A68FB799B0013441B68002B01D00023E1
:10A5B00009E0FB790133FB71054B1B681B7AFA79C3
:10A5C0009A42EBD3012318460C37BD4680BC704736
:10A5D0001C08002180B586B000AFF8600B467A6099
:10A5E000FB7200237B61FB68002B0CBF012300235F
:10A5F000FB74FB6803F00303002B03D086211820B3
:10A60000FEF7AEFFFB7A002B36D07968002015F0FC
:10A610009FFD78617B690C337B61FB7A9B007A69D3
:10A6200013447B61FB7C83F00103DBB2002B23D05E
:10A63000144AFB681360134B1B68FA7A1A72114BA9
:10A640001B68FA680C325A600E4B1B685968FB7A1B
:10A650009A000C4B1B680A441A600A4B1B68586826
:10A66000FB7A9B001A46002113F002FE054B1B6883
:10A670007968184615F06CFD7B6918461837BD4699
:10A6800080BD00BF1C08002190B589B002AF044610
:10A69000084611461A462346FB800346BB800B46FC
:10A6A0007B8013463B80344B1B68002B03D1A521D4
:10A6B0001820FEF755FF304B1B681B7A9BB2FA88B7
:10A6C0009A4208D22C4B1B685A68FB889B001344A3
:10A6D0001B68002B02D043F2020348E03A88BB8893
:10A6E0001146184615F0D6FF0346FB823A8D7B884B
:10A6F0001146184615F0E6FF0346BB82FB8ABA8A6C
:10A700001146184615F0F6FF03467B821A4B1B686C
:10A710001B687A8A1146184615F06FFDF860FB68D1
:10A72000002B01D1042322E0BA8A7B8A1946F868FB
:10A7300015F084FFF86815F094FF7A88B98A3B8D8C
:10A740000093092315F094FEF86815F095FFBA8878
:10A75000F98A3B8800930A2315F014FF064B1B6807
:10A760005A68FB889B001344FA681A600023184655
:10A770001C37BD4690BD00BF1C08002180B584B0C9
:10A7800000AF0346FB80224B1B68002B03D1C62180
:10A790001820FEF7E5FE1E4B1B681B7A9BB2FA8859
:10A7A0009A4208D21A4B1B685A68FB889B001344D4
:10A7B0001B68002B02D143F2020324E0144B1B68F8
:10A7C0005A68FB889B0013441B68FB60104B1B6896
:10A7D0005A68FB889B00134400221A600C4B1B68CC
:10A7E0001868FB685B881A46F96815F068FDFFF782
:10A7F000CDFE0346002B05D0054B1B681B68184691
:10A8000015F0DBFC002318461037BD4680BD00BFA5
:10A810001C08002180B582B000AF0C4B1B68002BD8
:10A8200010D00023FB7107E0FB799BB21846FFF7BD
:10A83000A5FFFB790133FB71044B1B681B7AFA7986
:10A840009A42F1D300BF0837BD4680BD1C080021E5
:10A8500080B584B000AF0346FB800023FB60144B3F
:10A860001B68002B03D1EC211820FEF779FE104B5A
:10A870001B681B7A9BB2FA889A4213D20C4B1B6856
:10A880005A68FB889B0013441B68002B0AD0084BB6
:10A890001B685A68FB889B0013441B68184615F018
:10A8A000E0FEF860FB6818461037BD4680BD00BF6B
:10A8B0001C08002180B584B000AF0346FB80002354
:10A8C000FB60144B1B68002B03D1FA211820FEF704
:10A8D00047FE104B1B681B7A9BB2FA889A4213D230
:10A8E0000C4B1B685A68FB889B0013441B68002BA9
:10A8F0000AD0084B1B685A68FB889B0013441B68EE
:10A90000184615F0B9FEF860FB6818461037BD46CA
:10A9100080BD00BF1C08002180B586B000AF786004
:10A92000084611461A460346FB700B46BB70134699
:10A930003B807B68002B0CBF012300233B7400236A
:10A940007B61FA78BB781344DAB23F4B1A707B68AC
:10A9500003F00303002B03D04E210920FEF700FE75
:10A960003B881F2B03D83B889B007B821CE03B88E5
:10A97000FF2B0FD93B8803F1FF023B885B009A4213
:10A9800003DA3B88FF339BB202E03B885B009BB25B
:10A990007B8209E03B885B007C2B03DD3B885B000E
:10A9A0009BB200E07C237B827B8A03339BB223F043
:10A9B0000303FB813B7C83F00103DBB2002B05D05A
:10A9C000224A7B681360224AFB8913801E4B1B7846
:10A9D0001A4613469B001344DB001A467B69134456
:10A9E0007B6100237B7422E03B7C83F00103DBB2BC
:10A9F000002B15D0154B19687A7C13469B00134425
:10AA0000DB000B4401221A70104B19687A7C134644
:10AA10009B001344DB000B4479687A690A445A604E
:10AA2000FB897A6913447B617B7C01337B74064B21
:10AA30001B787A7C9A42D7D37B69073323F00703CC
:10AA400018461837BD4680BD200800212408002183
:10AA50002808002180B588B000AF78600B46FB70F5
:10AA60007B685B687B61FB78002B30D07B680122C0
:10AA70005A70404B1B88184615F07FFF0346FB8138
:10AA80000023FB611FE07B68FA690C32002123F888
:10AA900012107B68FA691032F98923F81210FB89C9
:10AAA000FA6902FB03F37A691A447968FB699B002F
:10AAB0000B445A607A68FB691344143300221A70FD
:10AAC000FB690133FB61FB69032BDCD94DE07B683B
:10AAD00000225A700023BB611AE07B68BA690C320D
:10AAE000002123F812107B68BA691032002123F884
:10AAF00012107A68BB699B00134400225A607A687E
:10AB0000BB691344143300221A70BB690133BB6163
:10AB1000BB69032BE1D9174B1B88184615F03AFF88
:10AB200003467B82134B1B88184615F046FF0346ED
:10AB30003B827B687A695A607B683A8A1A843B8ACE
:10AB40007A691A447B689A607B687A8A5A847B683F
:10AB50007A69DA607B683A8A9A843B8A7A691A440D
:10AB60007B681A617B687A8ADA8400BF2037BD4629
:10AB700080BD00BF2808002180B584B000AF00234D
:10AB8000FB600023FB7217E01D4B1968FA7A13462D
:10AB90009B001344DB000B441B78002B09D0184B9F
:10ABA0001968FA7A13469B001344DB000B44FB60E0
:10ABB00007E0FB7A0133FB72124B1B78FA7A9A4258
:10ABC000E2D3FB68002B03D1A9210920FEF7C8FCC2
:10ABD000FB68002B0ED0FB6802337B6000BF7B68F4
:10ABE00000221A7000BF0121F868FFF733FFFB68ED
:10ABF00000221A70FB6818461037BD4680BD00BFA2
:10AC0000240800212008002180B582B000AF0C4B41
:10AC10001B88184615F0B1FE0346FB80084B1B88C5
:10AC2000184615F0CAFE0346BB80FA88BB889342DB
:10AC300038BF13469BB218460837BD4680BD00BFDB
:10AC40002808002180B586B002AF78600B46FB7003
:10AC50001346BB702E23FB73BB789BB2FA7892B27B
:10AC6000F97B184615F066FC0346BB817B68002B18
:10AC700013D0BB789AB2FB789BB2F87BB98900936A
:10AC80000346786815F00EFC064A7B681360064A96
:10AC9000FB781370054ABB781370BB8918461037D0
:10ACA000BD4680BD2C08002130080021310800215C
:10ACB00080B586B002AF78600B46FB701346BB7060
:10ACC000BB789BB21A460521F72015F0A3FC03467A
:10ACD00003339BB223F00303BB817B68002B2BD093
:10ACE0007B6803F00303002B03D095211920FEF7A6
:10ACF00037FC154A7B681360134ABB899380002395
:10AD0000FB8114E0104B1B68FA890F49898801FB0D
:10AD100002F21344BB60BB789BB2B9890093052350
:10AD2000F722B86815F048FCFB890133FB81FB78FA
:10AD30009BB2FA899A42E5D3FB78BA8902FB03F306
:10AD400018461037BD4680BD4C08002180B584B040
:10AD500000AF3A601A460346FB710B46BB711346BF
:10AD60007B713B6803F00703002B04D03B6803F0C2
:10AD70000303002B03D01F214C20FEF7F1FBFB79CE
:10AD80009BB24FF489721946002015F095FDF860CA
:10AD90007B79002B01D0002300E03B46BA79F968AB
:10ADA00001FB02F21146184615F0D2F9B8607B7922
:10ADB00083F00103DBB2002B05D0054AFB79137049
:10ADC0003B68044A1360BB6818461037BD4680BD17
:10ADD000580800215408002180B584B000AF786085
:10ADE0000A4B1B789BB24FF489721946002015F06C
:10ADF00063FDF860064B1B68FA687968184615F021
:10AE00005EFA00BF1037BD4680BD00BF5808002164
:10AE1000540800210122104B4FF0FF3000215A60EE
:10AE2000C3F8080303F580539A60C3F80012C3F80F
:10AE30000803C3F80015C3F804259A60C3F8080393
:10AE4000C3F80015C3F8042503F5805341F6F872E2
:10AE5000C3F80825704700BF00D000410A4B4FF4EB
:10AE60000052C3F88020BFF34F8FBFF36F8FC3F83A
:10AE700080214FF48042C3F88020BFF34F8FBFF38F
:10AE80006F8FC3F88021704700E100E008B5FFF73D
:10AE9000C1FFFFF7E3FF00F01BF8054B41F6F87226
:10AEA000C3F8082500F0AAF8BDE8084000F0AEB8E5
:10AEB00000F0004108B5FFF7ADFFFFF7CFFF034BF0
:10AEC00041F6F872C3F8082508BD00BF00F0004144
:10AED00010B5054C204617F04FFB18B130211D204E
:10AEE000FEF73EFB607010BD590800212DE9F047C8
:10AEF00007462B4E2B4C2A4817F042FB054608B15B
:10AF0000FF2373704FF001080023DFF89C90C4F812
:10AF10000480C4F80031C4F80431C4F80475C4F8DE
:10AF20000080D4F8003113B9D4F80431E3B1D4F877
:10AF30000431002BE8D1A5B996F801800323757080
:10AF40004FF400523046C4F80833184BC4F804518B
:10AF5000C4F80051C3F8802117F021FBB8F1000FAD
:10AF6000C9D10020BDE8F087D9F81030DB06D8D56C
:10AF70000E4B4FF40052C3F88021EFF3108A72B6E3
:10AF80000323C4F80433D4F8003123B9D4F80431CE
:10AF90000BB917F00FFBBAF1000FC2D162B6C0E7D0
:10AFA0005908002100D0004100ED00E000E100E080
:10AFB000114B1A6870B5E2B15A68092101250132B6
:10AFC0001E68092A28BF002205FA02F426420DD085
:10AFD0005A60EFF3108172B61A6822EA04021A600E
:10AFE00001B962B65B680360002070BD0139E6D12B
:10AFF0005A600520F9E700BF5C080021024B0022DF
:10B000001A605A60704700BF5C080021014B0022A3
:10B010001A70704768080021084B10B51C784CB9AD
:10B0200012F03CFF064BFF28187005D173211F203A
:10B03000FEF796FA0F2010BD2046FCE768080021B5
:10B040001000002110B5044C2078FF2803D012F026
:10B0500041FFFF23237010BD10000021044B4FF669
:10B06000FF7200219A86DA8683F832101A877047B9
:10B07000A8080021044B4FF6FF7200219A86DA8659
:10B0800083F832101A877047A8080021054B9A8E62
:10B09000824205D100214FF6FF7283F832109A8662
:10B0A000704700BFA8080021014BD886704700BF39
:10B0B000A80800210A4A4FF6FF710346B2F834C0CF
:10B0C0008C4503D0002210461A60704792F8321067
:10B0D000012902D001201A6070470020704700BF8C
:10B0E000A8080021064B93F83220012A06D001223D
:10B0F000D98E104683F83220998670470020704719
:10B10000A8080021014B1887704700BFA80800213C
:10B11000074B0246B3F834C0198F8C4501D000208C
:10B12000704793F832000028FAD00120136070476E
:10B13000A8080021094B998E1A8F914201D0002056
:10B1400070474FF6FF7193F832209986002AF6D0A7
:10B150000022012083F83220704700BFA808002198
:10B16000064B998E1A8F914201D00120704793F8B7
:10B170003200B0FA80F04009704700BFA8080021F3
:10B18000704700BF034648B9094B4FF0010C0868EF
:10B190008A88586003F804CB9A807047012800D051
:10B1A0007047034A086889889372D060118270479B
:10B1B000E408002140B90C4A13781BB15068128989
:10B1C00008608A8018467047012809D1064A937A98
:10B1D000002BF7D0D068128A086018468A80704722
:10B1E00000231846704700BFE408002100B580EA3C
:10B1F000020C1A78087891F805E050404A786044CB
:10B2000093F801C082EA0C0291F802C002449878D7
:10B210008CEA000CC8789444DA7850400A7900EB44
:10B220000C0193F804C0587982EA0C038EEA0002FC
:10B230000B44DA420CBF012000205DF804FB00BF84
:10B2400010B9054B18787047012802D1024B987A43
:10B2500070470020704700BFE408002130B50C465D
:10B26000032105468DB0601852B3FEF7C7FB637922
:10B27000EC4603F03F0343F0400363718DF81D304B
:10B280000023286806938DF81C306968AA68CDE908
:10B290000433E3788DF81F3023798DF81E30EB6886
:10B2A000ACE80F00684615F068FE9DF82F109DF879
:10B2B0002E209DF82D3021706270A3700DB030BD2E
:10B2C000FEF7AAFBD3E700BF10B5044639B106214B
:10B2D000FEF794FB637903F03F03637110BD062111
:10B2E000FEF79AFB637903F03F03637110BD00BF63
:10B2F00010B40B46074C332223F8042BD4F80E006D
:10B30000D4F81210D4F81620648B07C31C8010BC2C
:10B31000704700BFF808002170B5224D296BEC6A18
:10B320000B78A83403F00303032B1AD1EB8E012012
:10B33000AA8E0343207442F40062EB86AB6BAA86AC
:10B340009847296B237E013B18BF012323764B7856
:10B3500033B1D4E92032013342F10002C4E9203292
:10B3600070BD002BEED04B78002BEBD0AA8E42F4B0
:10B370000062AA86EA6B002AF2D0FB2B08D895F867
:10B38000403063B1AB6B00212020BDE8704018470E
:10B3900095F8413043F0100385F8413070BD01232A
:10B3A0000370CFE7F808002110B5134C0DF084F8B6
:10B3B0000CF0A2FD0021A36BA08E9847237F4BB910
:10B3C000636C94F8411094F842009847002384F885
:10B3D000483010BD234607CB1B88C4F80E0004F18B
:10B3E0001D00C4F81210C4F816200222034963831A
:10B3F00003F034FDE4E700BFF8080021F1B20001DA
:10B40000034B93F8483003B97047FFF7CDBF00BF37
:10B41000F808002170B5874C002382B0E56A8DF8EA
:10B42000053095F8CB2005F1A80694F87E300AB1D6
:10B430000433DBB2FF2B11D180B995F86F3095F84A
:10B440006E108B4202D0FF200CF014FFB37D032B53
:10B4500000F2EB80DFE803F00521887695F86E10A6
:10B46000F1E794F87F307448ADF80630A5F8543011
:10B47000FFF74EFE002840F0A9800DF105020DF106
:10B480000601D4F8840014F01BFBC4F8800020B13E
:10B4900096F85D30002B00F0AF80684B1846C4F87A
:10B4A0008030F37DDB0003F00802037803F0F30340
:10B4B0001343327E920002F00402134303F0EF02C2
:10B4C00003F00303032B027002D1C378022B14D0C4
:10B4D000D4F8840014F0E7FB50B9D4F88000027867
:10B4E00002F00303032B08D0FFF73AFE00287FD1B8
:10B4F000D4F88000027842F01002027096F82230F0
:10B5000013B14378002B4BD10DF004F90CF0F4FC8F
:10B510006A6941F64B539A423BD8012195F86F2056
:10B5200008460DF0C1F9D4F8802001234449108861
:10B53000927884F8B830A4F8BC0084F848308A7057
:10B5400002B070BD3C48FFF7E3FD002868D0D4F896
:10B550008000C3781B2BA4D1012105F110000CF051
:10B56000BFFED4F880009CE7B5F854300DF1050219
:10B570000DF10601D4F88400ADF8063014F0A0FAFD
:10B58000C4F8800000288CD140F2EB212720FDF781
:10B59000E7FF95F86F20012100200DF085F9C2E743
:10B5A000D4F888000DF0B6F894F82810D4F8880084
:10B5B000D6E91E23B1FA81F6D4F880107609C4E9E1
:10B5C000282384F8A8600CF03DFCA1E7E38E8020DE
:10B5D000D4F8801043F08003A26BE38690470121EA
:10B5E000D4F880007174C3781B2B7FF45AAFB4E792
:10B5F000D4F88000027880E79DF8053033B1BDF8BB
:10B60000061003F0D1F8D4F880004AE70380012146
:10B610008370D4F8800002F077FFD4F88000EEE762
:10B620004FF43D712720FDF79BFF40F201312720A9
:10B63000FDF796FFF8080021780900214409002150
:10B64000B4090021184A92F8283083B188B992F8D9
:10B65000BC10C9060FD50BB30021D38E9B0715D59F
:10B66000D2F88030DB78981E18BF0120704701287F
:10B67000EDD000207047D2F8C010D06B0978C1F32C
:10B680000011C1F1010120B1002BE6D131B101203F
:10B690007047B2F8C4000028F9D1F5E7D08E003821
:10B6A00018BF0120704700BFF808002108B5094BFA
:10B6B00093F84820022A07D11A7B42F001021A733C
:10B6C000BDE80840FFF770BE40F24F212720FDF78C
:10B6D00047FF00BFF8080021F8B52C4C0646E56A84
:10B6E000D4F8C03095F8CB2005F1A80794F87E0077
:10B6F00023630AB1031DD8B2FF2895F86F1004D157
:10B700001EB995F86E30994203D00CF0B3FD97F84E
:10B7100023205AB3D4F888000CF0FCFF94F82830AA
:10B72000D4F88810003B206B18BF012384F8A830A0
:10B73000D7E92023C4E928230CF084FB3EB995F80F
:10B740006F0010F00C0018BF28200DF045F86A6952
:10B7500041F64B539A420FD895F86E2000210120F4
:10B760000DF0A2F8022384F84830F8BD206B0CF0ED
:10B77000D1FF0CF0C1FBE1E7002195F86E200846EF
:10B780000DF092F8022384F84830F8BDF808002143
:10B790002DE9F041454C82B006460F4694F848200A
:10B7A000E56A012A5FFA82F805F1A80579D12B7CB8
:10B7B0006BB1E38E0021042043F004032974E38677
:10B7C000A36B984794F828300BB185F81280D4F811
:10B7D00080100A7802F00302032A44D04B78EBB1C0
:10B7E0000223AB7595F8233023B3E36A93F86F1007
:10B7F00094F828300139003B18BF012384F8A830A1
:10B80000D5E92023C4E9282394F87E20072943D8CA
:10B81000DFE801F03F0942074242423C0123AB7599
:10B82000E0E74FF003080021434601200091204942
:10B830000CF0A4FA012F11D186B9D4F8C8303046E3
:10B84000984758B194F8413043B93046FFF7FAFEB3
:10B8500020B902B0BDE8F041FFF73EBF02B0BDE83D
:10B86000F041FFF7A1BDAB7D6BB9E38E022043F041
:10B870000203E386A36B9847D4F880100B7803F09B
:10B880000303032BAAD10323AB75ABE74FF00208E8
:10B89000C9E74FF00008C6E740F2C5310620FDF7C2
:10B8A0005FFE40F271412720FDF75AFEF8080021A3
:10B8B000880900210D4B0E4A70B50E4C1A6094F8A1
:10B8C000483073B906460D4603F0FF02012104F12A
:10B8D0004C00227702F018FEC4F8C060C4F888500B
:10B8E00070BDDE212720FDF73BFE00BF6800002170
:10B8F00058000021F8080021044A92F8483003F06B
:10B90000FF000BB9107770470C207047F808002132
:10B91000024B012283F84020704700BFF808002145
:10B920002DE9F04385B0BF4C02AD85E8030094F8E3
:10B9300048100C98002940F0F081002B18BF002A15
:10B9400000F0EB81002800F0E88101F0FF06C4F868
:10B95000C830606404F12803A26384F8406084F86E
:10B96000416084F8CC6084F8426084F8B860E68670
:10B97000A68695E8030083E80300E56A0CF004FD61
:10B980000CF0BAFA95F9720005F1A8070CF07EFDEB
:10B99000286A0CF0A3FEA8690CF07EFD97F833002E
:10B9A0000CF084FD94F82830002B00F0B3800420C4
:10B9B00012F058FF6A6941F64B539A4200F2C78071
:10B9C00001200CF06BFF4D200CF02CFC95F86F1053
:10B9D00001200DF069FC002800F0B280924B18683D
:10B9E0000CF082FE2888FEF765FFC4F884002888E2
:10B9F000FEF72EFF95F87B30C4F8D0001BB9696FB5
:10BA0000002940F0D380D7F89430DFF820C2D7F86F
:10BA10008800D7F88C10D7F89020ACE80F00D7F842
:10BA20009830C4F8A930D7F89C30CCF80D3094F891
:10BA30002830002B40F08F80E36A93F8C520263A27
:10BA4000012A40F2DA8093F8C620262A00F0D58039
:10BA500093F86E10042900F0178111F00C0FA88FD5
:10BA600018BF4FF4296001F0EDFE2B8F95F86F1091
:10BA7000834228BF034605F1300084F87F3003F08D
:10BA800081FA95F86F1097F823900829B5F840804F
:10BA900008BF042101F0D6FEB9F1000F01D1043036
:10BAA00080B2404528BF40465FFA80F884F8D480D1
:10BAB00003F0C8FC20B1B8F12B0F38BF4FF02B08B2
:10BAC00094F8281084F87E80002940F0D28097F8FE
:10BAD0002230002B00F0B480012395F86E6084F8CA
:10BAE000A830013E6869D7E91E23C4E9282341F63E
:10BAF0004B53984294BF04200020072E00F2E480AC
:10BB0000DFE816F09700F900E2009600E200E2009C
:10BB1000E200FB00032012F0A5FE6A6941F64B53D8
:10BB20009A4210D801200CF0B9FE4D200CF07AFB9F
:10BB300095F86E1000200DF0B7FB00287FF44EAF93
:10BB400005B0BDE8F08396200CF06CFBF0E7962082
:10BB50000CF068FB3AE7E26A92F8C530A3F12601DF
:10BB6000012934D992F8C600262830D0A3F121014A
:10BB70001346012900F2C780242840F0AA8092F8D9
:10BB8000671092F86E310B4092F86E105A077BD412
:10BB900013F0010274D19B077FF55FAF042973D0C6
:10BBA000082971D0012918BF022124E0B7F84A20E2
:10BBB000BB8A93427FF427AFB5F878201344012263
:10BBC000A7F84A3095F87A000FF0EAF91BE792F8E7
:10BBD000C63392F86E10002B3FF43FAF082953D0C4
:10BBE000042951D0082B4FD0042B4DD0012901D06E
:10BBF000012B15D10121A88F35E793F8222393F863
:10BC00006E10002A3FF429AF08293DD004293BD00B
:10BC1000082A39D0042A37D00129EBD0012AE9D0EB
:10BC20000221E8E7F80800216800002188090021C6
:10BC3000032100220B463E490092FB220CF09EF8A5
:10BC40000120FFF7E7FB3B4BD3F8503523F0080307
:10BC5000032B67D0002397F83320C4E90033A36097
:10BC6000A3812988BB8A21802271638005B0BDE849
:10BC7000F08397F823305BB90120FFF72DFDE2E751
:10BC8000042901D0082946D108214FF42960EAE6A9
:10BC900095F86F300122D7E92001013B84F8A820F4
:10BCA000C4E92801072B0FD8DFE803F005290E04AB
:10BCB0000E0E0E2B03260021334642460120009132
:10BCC0001B490CF05BF8D7E740F2C5310620FDF7C1
:10BCD00047FC92F86E3192F86E105A07D4D413F0E4
:10BCE000010214D198077FF5B8AE0829CCD00429F9
:10BCF0007FF458AFC8E701219BE7022199E70126AD
:10BD0000D9E70226D7E724287FF4A2AE37E708292F
:10BD1000BAD00429B8D011466DE740F2531127205C
:10BD2000FDF71EFC4FF402712720FDF719FC00BF40
:10BD3000880900210080004110B5174C94F8483064
:10BD4000DBB194F828307BB194F84830022B1ED137
:10BD5000E36AD3F8F8020CF015FDE36A93F87B2050
:10BD60000AB9596F61B910BD94F84830012BF4D06D
:10BD70004FF408712720FDF7F3FBFFF715FBECE705
:10BD8000114693F87A00BDE810400FF009B94FF45E
:10BD900009712720FDF7E4FBF8080021FFF704BB39
:10BDA000014B1877704700BFF8080021014B93F84A
:10BDB000B8007047F8080021024B988EC0F380202D
:10BDC000704700BFF8080021014B93F8CC00704782
:10BDD000F80800212DE9F0411E4F820782B0054688
:10BDE000FC6A0E4604F1A80411D4EB070CD5217EA1
:10BDF000D4E92032013342F100020129C4E92032A2
:10BE00000CBF00230123237602B0BDE8F081FB6B59
:10BE1000DBB1B7F8C4201846396B033291F80180C2
:10BE200012F0B0F90DF1020201A93863D7F8D00081
:10BE300014F007F9019814F0C8F801223060414667
:10BE4000D7F8D00013F0F1FFCFE740F2624127208E
:10BE5000FDF786FBF80800212DE9F047002386B0A6
:10BE6000A54C06468DF80F300F46E56ACDE9043340
:10BE700094F84830A835022B5FFA83F840F08A81A5
:10BE8000A38E13F0400106D1A36B40209847A38EE8
:10BE900043F04003A386002E61D095F82330002B99
:10BEA00040F00A81236B597889B2A4F8C4100029A4
:10BEB00040F016810022E2631A78E87DA38EC2F377
:10BEC000800143F480738842A38600F0DF80E16A3A
:10BED00094F8280001F1A80999F81610D9B102299F
:10BEE00000F03E81002189F8161020B199F8123037
:10BEF000002B40F02B8199F81130002B40F002818B
:10BF000099F81730012B0CBF0023012389F8173053
:10BF1000236B1A78A38E43F480634FF00009A38645
:10BF2000C2F3C0022B7E934228D103F08BFA002883
:10BF300000F0BD80226B137803F00303013B012B5B
:10BF400000F2B580527894F8D4309A4240F2AF8033
:10BF500094F8413043F0100384F841300EE095F836
:10BF60002320002A40F0C38043F400734FF00009FF
:10BF7000A38694F8CC30013384F8CC3095F8223085
:10BF80003BB394F8283041F64B52B3FA83F35B0984
:10BF900084F8A830E36A586993F86E10904294BF11
:10BFA000042000200139D5E91E23C4E928230729EC
:10BFB00000F2C480DFE801F07804C275C2C2C20694
:10BFC0004FF00108002243464C490092FB220BF03F
:10BFD000D5FE002F45D194F8CC30012B41D8D4F8B0
:10BFE000C8300120984700283BD094F84130002BFE
:10BFF00037D10120FFF726FB0746002831D1FFF794
:10C0000009FA9DF80F30002B32D1B9F1000F06D09C
:10C0100094F82830002B3BD163890133638166B3E8
:10C02000E3880022013384F8CC20E380344803F015
:10C03000EDFE049840B113F0C8FFE16A0023082226
:10C040000130037202F0EAFE059B33B1E16A002081
:10C0500010221872059802F0E1FE97B906B0BDE80B
:10C06000F0870CF085FC9DF80F300127002BCCD019
:10C0700005A90220FFF7AEFEC7E72389013323811C
:10C08000D4E7FFF791F906B0BDE8F087B14647E77E
:10C09000E3882189AA8A0B4313439BB2002BBED0AD
:10C0A000BAE74FF003088DE74FF000088AE70DF17B
:10C0B0000F00FFF731F961E70BF062FF0BF044FF6F
:10C0C000236B597800287FF4EFAE00293BD01B7812
:10C0D0002A7EC3F3C0039A4256D089B2A4F8C41092
:10C0E000D4F8D00013F02CFE236BE063E4E60BF0F1
:10C0F00081FFA38E38E700BFF808002188090021DE
:10C10000200900214FF0000A89F811A0FFF712F86A
:10C11000002849D0E38E5146082043F00803E38607
:10C12000A36B9847D9F878300133C9F87830D9F83B
:10C130007C3043F10003C9F87C30E1E640F2C531C0
:10C140000620FDF70DFAA4F8C410B3E6E38E102024
:10C1500089F8121043F01003E386A36B9847CAE6F0
:10C1600004A9D4F8840013F0FEFCC0B1D9F87830EB
:10C1700094F828000133C9F87830D9F87C3043F1BD
:10C180000003C9F87C30ADE6012384F84230FFF7A4
:10C190000BF963E740F2E5412720FDF7E1F94FF4A1
:10C1A00078712720FDF7DCF940F2F7312720FDF701
:10C1B000D7F900BF6E4B2DE9F0475A781C18013AA9
:10C1C00094F802C1D2B282425A7036D168B393F861
:10C1D000022162452FD0012827D093F80321624520
:10C1E00029D0022821D093F80421624523D00328C6
:10C1F0001BD093F8052162451DD0042815D093F873
:10C200000621624517D005280FD093F80721624513
:10C2100011D0062809D093F8082162450BD00728D1
:10C2200003D093F80921624505D01A78013AD2B2B9
:10C2300094451A7043D1BDE8F0871101060100EB67
:10C240004000B71C82364FEA400E881C82311D1810
:10C2500053F800A0D8190EF5857ED5F80490D5F8CE
:10C260000880ED6843F807A0C0F80490C0F8088083
:10C27000C560581853F8018002EB4201D0F80490D1
:10C280001A4487684900C568981943F8068001F583
:10C290008571C0F804908760C56092F8020184F847
:10C2A00002015818595843F80E1003EB0E0180880C
:10C2B000888092F83A21587884F83A2186E7C2EBD0
:10C2C000C202CCEBCC0102F5A97201F5A9719C5810
:10C2D0001A4458185C50918894795A7881808471F6
:10C2E0001978002AA7D093F80201884231D0012A98
:10C2F000A1D093F8030188422DD0022A9BD093F855
:10C30000040188422BD0032A95D093F80501884276
:10C3100023D0042A8FD093F80601884221D0052A21
:10C3200089D093F8070188421FD0062A83D093F85A
:10C330000801884217D0072A3FF47DAF93F80921FE
:10C340008A427FF478AF0722134483F802C1BDE824
:10C35000F0870022F8E70122F6E70322F4E7022241
:10C36000F2E70422F0E70622EEE70522ECE700BF41
:10C37000D0090021044B5A78824203D9184490F81E
:10C380004201704700207047D009002108B5084BD2
:10C390004FF4C5720021184611F06AFF00224FF4D5
:10C3A000617180F88A2180F88B21A0F88C1108BD7A
:10C3B000D0090021014B83F88B017047D00900217F
:10C3C0002DE9F84FC94C16461F462578002D00F080
:10C3D0004C8191F800C094F853A194F852E18CEA92
:10C3E0000A0A91F8019080EA0E0E91F80280CA784C
:10C3F000F24494F854E10B7989EA0E0E94F858B19E
:10C40000F24494F855E188EA0E0ED64494F856A109
:10C4100082EA0A0AD64494F857A183EA0A0AF24447
:10C4200091F805E08EEA0B0B1BEB0A0A00F026815F
:10C43000012D00F05D8194F85BA189EA0A0B94F864
:10C440005AA18CEA0A0ADA4494F859B180EA0B0B33
:10C45000DA4494F85CB188EA0B0BDA4494F85DB1E5
:10C4600082EA0B0BDA4494F85EB183EA0B0BDA44F0
:10C4700094F85FB18EEA0B0B1BEB0A0F00F07E8184
:10C48000022D00F0358194F861A18CEA0A0B94F832
:10C4900062A189EA0A0ADA4494F860B180EA0B0BD7
:10C4A000DA4494F863B188EA0B0BDA4494F864B187
:10C4B00082EA0B0BDA4494F865B183EA0B0BDA4499
:10C4C00094F866B18EEA0B0B1BEB0A0F00F0588153
:10C4D000032D00F00D8194F868A18CEA0A0B94F802
:10C4E00069A189EA0A0ADA4494F867B180EA0B0B79
:10C4F000DA4494F86AB188EA0B0BDA4494F86BB129
:10C5000082EA0B0BDA4494F86CB183EA0B0BDA4441
:10C5100094F86DB18EEA0B0B1BEB0A0F00F0328121
:10C52000042D00F0E58094F86FA18CEA0A0B94F8D2
:10C5300070A189EA0A0ADA4494F86EB180EA0B0B1A
:10C54000DA4494F871B188EA0B0BDA4494F872B1CA
:10C5500082EA0B0BDA4494F873B183EA0B0BDA44EA
:10C5600094F874B18EEA0B0B1BEB0A0F00F00C81F0
:10C57000052D00F0BD8094F876A18CEA0A0B94F8A2
:10C5800077A189EA0A0ADA4494F875B180EA0B0BBC
:10C59000DA4494F878B188EA0B0BDA4494F879B16C
:10C5A00082EA0B0BDA4494F87AB183EA0B0BDA4493
:10C5B00094F87BB18EEA0B0B1BEB0A0F00F0E680C0
:10C5C000062D00F0958094F87DA18CEA0A0B94F872
:10C5D0007EA189EA0A0ADA4494F87CB180EA0B0B5E
:10C5E000DA4494F87FB188EA0B0BDA4494F880B10E
:10C5F00082EA0B0BDA4494F881B183EA0B0BDA443C
:10C6000094F882B18EEA0B0B1BEB0A0F00F0C0808E
:10C61000072D00F0BF8094F884118CEA010C94F887
:10C62000851189EA01018C4494F88311484094F8FB
:10C630008611844488EA01018C4494F887114A40A9
:10C6400094F8881162444B40134494F889218EEA8F
:10C65000020E1EEB030F00F0A4806378072B40F25C
:10C66000A28007252846BDE8F88F6378072BF8D805
:10C6700001232A46237040F2531345E05546637860
:10C68000002B4DD094F80221AA4273D0012B47D041
:10C6900094F80321AA426DD0022B41D094F80421D2
:10C6A000AA4267D0032B3BD094F80521AA4261D05F
:10C6B000042B35D094F80621AA425BD0052B2FD04D
:10C6C00094F80721AA4255D0062B29D094F80821C6
:10C6D000AA424FD0072B23D094F80931AB420CBFAC
:10C6E000122507252846BDE8F88F00BFD009002194
:10C6F0006378072BB5D86B1C072D237055D8C5EB75
:10C70000C503EA0003F25313D1F800C0521B44F8EA
:10C7100003C02344898822449980637882F85201B7
:10C720004FEA03195A1C314604EB030809F10200D1
:10C7300062701022204400F0B9FF09F1820010223B
:10C740003946204400F0B2FF1021384600F042FF85
:10C7500003461021304688F8423100F03BFF0023A9
:10C7600088F802511D4688F84A0188F83A3128466F
:10C77000BDE8F88F12252846BDE8F88F01257EE731
:10C7800002257CE703257AE7042578E7052576E787
:10C79000062574E76378072B3FF664AF0823237000
:10C7A000ADE707256BE70135257044212820FCF70C
:10C7B000D7FE00BFC94B1A78002A00F038812DE956
:10C7C000F04191F800C04F7893F8544193F85351D9
:10C7D0007C4093F855818CEA050591F804E02C44DF
:10C7E00093F8525145402C448D7885EA080808EBAF
:10C7F0000406CC7893F8568184EA0808B0444E7950
:10C8000093F857118EEA0101884493F8581171404A
:10C8100011EB080100F00D81012A00F0058193F869
:10C820005A1193F85B818CEA010187EA08084144B8
:10C8300093F8598180EA0808414493F85C8185EABD
:10C840000808884493F85D116140884493F85E11AC
:10C850008EEA0101414493F85F8186EA080818EBEB
:10C86000010F00F02081022A00F0DE8093F86111B0
:10C8700093F862818CEA010187EA0808414493F841
:10C88000608180EA0808414493F8638185EA0808DA
:10C89000884493F864116140884493F865118EEAE6
:10C8A0000101414493F8668186EA080818EB010FFC
:10C8B00000F0FB80032A00F0B78093F8681193F82A
:10C8C00069818CEA010187EA0808414493F867818D
:10C8D00080EA0808414493F86A8185EA0808884498
:10C8E00093F86B116140884493F86C118EEA010152
:10C8F000414493F86D8186EA080818EB010F00F0B7
:10C90000D680042A00F0908093F86F1193F870811C
:10C910008CEA010187EA0808414493F86E8180EAB5
:10C920000808414493F8718185EA0808884493F81F
:10C9300072116140884493F873118EEA01014144F9
:10C9400093F8748186EA080818EB010F00F0B380B1
:10C95000052A69D093F8761193F877818CEA010162
:10C9600087EA0808414493F8758180EA0808414441
:10C9700093F8788185EA0808884493F87911614032
:10C98000884493F87A118EEA0101414493F87B813F
:10C9900086EA080818EB010F00F09180062A43D0C0
:10C9A00093F87D1193F87E818CEA010187EA0808EB
:10C9B000414493F87C8180EA0808414493F87F81E0
:10C9C00085EA0808884493F880116140884493F808
:10C9D00081118EEA0101414493F8828186EA0808B8
:10C9E00018EB010F6FD0072A1ED093F884218CEA30
:10C9F000020C93F88521574093F88321BC445040A2
:10CA000093F886216044554093F887212844544088
:10CA100093F8882120448EEA020E93F889218644F7
:10CA2000564016EB0E0F3CD00020BDE8F0811046BA
:10CA300070470A4658780028F7D093F802119142BF
:10CA400037D00128F0D093F80311914235D0022855
:10CA5000EAD093F80411914233D00328E4D093F83C
:10CA60000511914231D00428DED093F8061191428D
:10CA70002DD00528D8D093F80711914229D0062847
:10CA8000D2D093F80811914225D00728CCD093F842
:10CA900009319342C8D10720FFF78CFB0120BDE884
:10CAA000F0810722C6E70122C4E70222C2E703227F
:10CAB000C0E70020F0E70422BCE70120ECE70522F4
:10CAC000B8E70220E8E70622B4E70320E4E7042001
:10CAD000E2E70520E0E70620DEE700BFD0090021FD
:10CAE000084B5878013840B2002809DB10B5C4B2B1
:10CAF0002046FFF75FFB601E40B2431CF7D110BD1C
:10CB0000704700BFD0090021014B83F88A017047AC
:10CB1000D0090021014B93F88A017047D009002108
:10CB2000421E4AF2B711034692B28A4204D8034A1F
:10CB30000120A2F88C31704700207047D0090021F5
:10CB4000014BB3F88C017047D0090021C74B2DE988
:10CB5000F0431F78002F00F0338191F800C04E7829
:10CB600093F8542193F8534172408D788CEA040471
:10CB700093F8559193F85681224493F8524185EAEF
:10CB8000090991F804E044402244CC7849794A44A8
:10CB900084EA080808EB020993F857818EEA080234
:10CBA00002EB090893F858214A4012EB080200F002
:10CBB0000A81012F00F0048193F85B2193F85A81D8
:10CBC00072408CEA0808424493F8598180EA0808C8
:10CBD000424493F85C8185EA0808904493F85D210B
:10CBE0006240904493F85E218EEA0202424493F838
:10CBF0005F8181EA080818EB020F00F01C81022F08
:10CC000000F0DE8093F8612193F862818CEA0202E1
:10CC100086EA0808424493F8608180EA08084244A2
:10CC200093F8638185EA0808904493F86421624090
:10CC3000904493F865218EEA0202424493F866819B
:10CC400081EA080818EB020F00F0F780032F00F0CC
:10CC5000B78093F8682193F869818CEA020286EA2A
:10CC60000808424493F8678180EA0808424493F830
:10CC70006A8185EA0808904493F86B2162409044E9
:10CC800093F86C218EEA0202424493F86D8181EAA6
:10CC9000080818EB020F00F0D480042F00F09080F9
:10CCA00093F86F2193F870818CEA020286EA0808F3
:10CCB000424493F86E8180EA0808424493F87181F7
:10CCC00085EA0808904493F872216240904493F8F2
:10CCD00073218EEA0202424493F8748181EA0808C3
:10CCE00018EB020F00F0B180052F69D093F8762180
:10CCF00093F877818CEA020286EA0808424493F8A6
:10CD0000758180EA0808424493F8788185EA08082A
:10CD1000904493F879216240904493F87A218EEA06
:10CD20000202424493F87B8181EA080818EB020F63
:10CD300000F08F80062F43D093F87D2193F87E81F9
:10CD40008CEA020286EA0808424493F87C8180EA71
:10CD50000808424493F87F8185EA0808904493F8D4
:10CD600080216240904493F881218EEA020242447D
:10CD700093F8828181EA080818EB020F6DD0072F23
:10CD80001ED093F884218CEA020C93F8852156403A
:10CD900093F88321B444504093F886216044554071
:10CDA00093F887212844544093F8882120448EEA40
:10CDB000020E93F889218644514011EB0E0F38D0B2
:10CDC0000820BDE8F08310465A78002AF8D093F87E
:10CDD0000211814233D0012AF2D093F8031181422B
:10CDE00031D0022AECD093F8041181422FD0032ACB
:10CDF000E6D093F8051181422DD0042AE0D093F8B3
:10CE0000061181422BD0052ADAD093F8071181420E
:10CE100027D0062AD4D093F80811814223D0072ABC
:10CE2000CED093F80931834214BF08200720BDE813
:10CE3000F0830720C8E70120C6E70220C4E70020EE
:10CE4000BFE70320C0E70120BBE70420BCE70220C6
:10CE5000B7E70520B8E70320B3E70620B4E70420CE
:10CE6000AFE70520ADE70620ABE700BFD009002102
:10CE7000044B5A78824203D903EB0010823070478A
:10CE800000207047D0090021044B5A78824203D910
:10CE900003EB00100230704700207047D0090021DA
:10CEA00010B40D4C6378834202D8002010BC704748
:10CEB000204490F80231C3EBC303E01803F253138C
:10CEC00090F852010870E118E358012010BC13607B
:10CED0008B889380704700BFD009002108B50AF005
:10CEE000F5FE08B9FF2008BDBDE808400AF024BFE0
:10CEF000074B10B593F88A4114B1597811B90C4613
:10CF0000204610BD0246981C0AF086FE204610BD41
:10CF1000D009002100487047600B002101EB41015E
:10CF2000044B0268490001F585715A501944838801
:10CF30008B807047D0090021064B5A78824206D96F
:10CF4000184490F83A01B0FA80F040097047002088
:10CF5000704700BFD00900212DE9F0470C46054677
:10CF600006211746204600F035FB064650B1DA4848
:10CF7000427822B1394600F59D7011F079F93046BA
:10CF8000BDE8F087D44B93F80080B8F1000FF6D0DD
:10CF9000207894F801E093F8542193F853118EEA25
:10CFA000020294F802C0414093F855A193F85691BB
:10CFB0000A4493F852118CEA0A0A69400A44E1785B
:10CFC000524481EA090909EB020A227993F8579140
:10CFD000647982EA0909D14493F858A184EA0A0ADB
:10CFE0001AEB090F00F05B81B8F1010FC7D093F87D
:10CFF0005A9193F85BA180EA09098EEA0A0AD144A2
:10D0000093F859A185EA0A0AD14493F85CA18CEA05
:10D010000A0ACA4493F85D9181EA0909CA4493F85F
:10D020005E9182EA0909D14493F85FA184EA0A0A71
:10D030001AEB090F00F03581B8F1020F9FD093F879
:10D04000619193F862A180EA09098EEA0A0AD14443
:10D0500093F860A185EA0A0AD14493F863A18CEAA7
:10D060000A0ACA4493F8649181EA0909CA4493F808
:10D07000659182EA0909D14493F866A184EA0A0A13
:10D080001AEB090F00F00F81B8F1030F3FF477AFEF
:10D0900093F8689193F869A180EA09098EEA0A0A6F
:10D0A000D14493F867A185EA0A0AD14493F86AA1AA
:10D0B0008CEA0A0ACA4493F86B9181EA0909CA44C6
:10D0C00093F86C9182EA0909D14493F86DA184EA3E
:10D0D0000A0A1AEB090F00F0EA80B8F1040F3FF4D6
:10D0E0004EAF93F86F9193F870A180EA09098EEA28
:10D0F0000A0AD14493F86EA185EA0A0AD14493F84A
:10D1000071A18CEA0A0ACA4493F8729181EA09096A
:10D11000CA4493F8739182EA0909D14493F874A13F
:10D1200084EA0A0A1AEB090F00F0C580B8F1050F6E
:10D130003FF425AF93F8769193F877A180EA090937
:10D140008EEA0A0AD14493F875A185EA0A0AD14405
:10D1500093F878A18CEA0A0ACA4493F8799181EA93
:10D160000909CA4493F87A9182EA0909D14493F8EB
:10D170007BA184EA0A0A1AEB090F00F0A080B8F13B
:10D18000060F3FF4FCAE93F87D9193F87EA180EA00
:10D1900009098EEA0A0AD14493F87CA185EA0A0AB1
:10D1A000D14493F87FA18CEA0A0ACA4493F880918B
:10D1B00081EA0909CA4493F8819182EA0909D144B4
:10D1C00093F882A184EA0A0A1AEB090F7BD0B8F11E
:10D1D000070F3FF4D4AE93F8848180EA080093F8F7
:10D1E00085818EEA080E704493F883E185EA0E0586
:10D1F000054493F886018CEA000C93F88701654496
:10D20000414093F88801294442400A4493F8891127
:10D210004C40D4427FF4B3AE07215A78002A3FF441
:10D22000AEAE93F8020188423FD0012A3FF4A7AE88
:10D2300093F8030188423CD0022A3FF4A0AE93F851
:10D240000401884239D0032A3FF499AE93F80501CE
:10D25000884236D0042A3FF492AE93F80601884201
:10D2600033D0052A3FF48BAE93F8070188422ED0C5
:10D27000062A3FF484AE93F80801884229D0072A91
:10D280003FF47DAE93F809218A427FF478AE0722FD
:10D290001344012683F83A713046BDE8F0873146E1
:10D2A000BBE70121B9E70221B7E70022F0E703213C
:10D2B000B3E70122ECE70421AFE70222E8E705210A
:10D2C000ABE70322E4E70621A7E70422E0E7052213
:10D2D000DEE70622DCE700BFD0090021002342F28E
:10D2E000107CA0F8482003644B1E0CFB0232B2FBFA
:10D2F000F1F14164704700BF70B50D46002106464C
:10D30000FDF7A2F8686018B1002318462B7070BDB5
:10D31000044601213046FDF797F8686018B10123F3
:10D3200020462B7070BD022070BD00BF38B504468A
:10D330000D4631B1012965D002292CD003295AD0DC
:10D3400038BD4FF47E7210F093FF4923012204216F
:10D3500084F817316FF03B0384F8CD20072284F85E
:10D360001931FE232B2084F8181184F81A217F210B
:10D37000414A84F84E31202384F81B5184F81C5113
:10D3800084F81D5184F8160184F8C110C4F8B02047
:10D3900084F86C3338BD0023D0F8CC23416942F2C5
:10D3A0001075B0F8D203A4F8F630B4F8FA3001FBE7
:10D3B00003F3B3FBF2F3A4F8FA30531E05FB00307D
:10D3C000B0FBF2F0A4F8F800D4F8E80000FB01F19B
:10D3D000B1FBF2F1C4F8E8102849B1FBF2F10131D8
:10D3E000A4F8FE10B4F8F01005FB0133B3FBF2F320
:10D3F000C4F8EC3038BD00F1CE01CD30BDE8384086
:10D4000000F01EBB436900251D49B0F8FA00D4F8AE
:10D41000E820194403FB00F003FB02F2A4F8FE52DB
:10D4200084F8F352A4F8F650B1FBF3F1B0FBF3F03B
:10D43000B2FBF3F2C4F8EC1040F6B831A4F8FA00ED
:10D44000581EC4F8E820A4F8F01042F21071E28BE4
:10D4500001FB0200094A04F1CE01B2FBF3F2B0FB7A
:10D46000F3F3013204F1CD00A4F8F830A4F8FE2063
:10D47000BDE8384000F0E4BA00E0FCFF005A620268
:10D480007FC3C90138B504460D4631B1012965D0C5
:10D4900002292CD003295AD038BD4FF45A7210F00B
:10D4A000E7FE49230122042184F817316FF03B0382
:10D4B00084F8CD20072284F81931FE232B2084F82C
:10D4C000181184F81A217F213F4A84F84E31202315
:10D4D00084F81B5184F81C5184F81D5184F81601FE
:10D4E00084F8C110C4F8B02084F8093338BD002393
:10D4F000D0F83023416942F21075B0F83603A4F831
:10D50000F630B4F8FA3001FB03F3B3FBF2F3A4F8FE
:10D51000FA30531E05FB0030B0FBF2F0A4F8F8001F
:10D52000D4F8E80000FB01F1B1FBF2F1C4F8E81017
:10D530002649B1FBF2F10131A4F8FE10B4F8F01065
:10D5400005FB0133B3FBF2F3C4F8EC3038BD00F156
:10D55000CE01CD30BDE8384000F072BA436942F2E6
:10D5600010751B4AB0F8FA001A44D4F8E81003FB0F
:10D5700000F003FB01F1B2FBF3F2B0FBF3F0C4F8EF
:10D58000EC2040F6B832A4F8FA00581EA4F8F020B7
:10D59000E28B05FB02000D4AB1FBF3F1B2FBF3F2A3
:10D5A000B0FBF3F30132A4F8F8300023C4F8E8101C
:10D5B00004F1CD0004F1CE01A4F8FE20A4F8F63069
:10D5C000BDE8384000F03CBA00E0FCFF005A6202BF
:10D5D0007FC3C901002964D04B1E062B00B562D958
:10D5E0008B0800F1040E02464FF0000C013BDBB249
:10D5F0000EEB830E52F8043B724543EA0C0CF9D152
:10D60000CCF30723CCF307424CEA0303134301F0A6
:10D61000FC0243EA1C6331F0FC0CDBB23CD010F896
:10D6200002C043EA0C0302F1010C5FFA8CFC614575
:10D6300032D910F80CC043EA0C0302F1020C5FFA75
:10D640008CFCDBB2614527D910F80CC043EA0C030F
:10D6500002F1030C5FFA8CFC61451DD910F80CC077
:10D6600043EA0C0302F1040C5FFA8CFC614513D908
:10D6700010F80CC043EA0C0302F1050C5FFA8CFCB5
:10D68000614509D9063210F80CC0D2B243EA0C0346
:10D69000914201D9825C1343B3FA83F040095DF8EB
:10D6A00004FB0120704700221346B8E762B102F183
:10D6B000FF3C0A44431E5FFA8CF1084412F8011D36
:10D6C00003F8011F9842F9D1704700BF0D2900F2FD
:10D6D0008380DFE801F00D11171D232939454B51D7
:10D6E000585E67072A3A042A8CBF00200120704741
:10D6F000B2FA82F040097047073A012A8CBF002035
:10D70000012070470B3A022A8CBF0020012070478D
:10D710000E3A012A8CBF002001207047113A0C2AD2
:10D720008CBF002001207047002B41D1A2F11303D0
:10D73000012B49D990F85E30002B47D0143A082AC3
:10D740008CBF002001207047A2F11103032B3BD9AD
:10D7500090F85E001D2A8CBF002000F00100704789
:10D76000A2F10400B0FA80F040097047A2F1010074
:10D77000B0FA80F04009704703BBA2F10500B0FA8F
:10D7800080F0400970471E3A022A8CBF0020012019
:10D790007047A2F121002F2A18BF062894BF01204C
:10D7A00000207047A2F12900B0FA80F040097047CC
:10D7B000123A0B2A8CBF002001207047A2F1100002
:10D7C000B0FA80F04009704701207047183A042AE7
:10D7D0008CBF00200120704700207047F8B5044638
:10D7E0000D46D0E904670DF02FFE08B3DDB12369C3
:10D7F00062699B1B62EB0702012B72F1000114DBD3
:10D800006FF001000021984271EB020215DB6A1EE5
:10D810001344B3FBF5F303FB05F5AE191D4647F1C1
:10D820000007C4E904672846F8BD00252846F8BD6E
:10D8300040F2D3112920FBF793FE40F2DD1129209D
:10D84000FBF78EFE11F00C030CD04B0712D44FF4F3
:10D85000747340229842194612D9401A90FBF2F094
:10D8600080B2704702290DD0702809D97038C0F3F2
:10D87000CF00704740F20E23102298421946ECD890
:10D88000002070473C28FBD93C38C0F38F0070471C
:10D890000B68C0F86A307047013908B5072914D8F9
:10D8A000DFE801F0071013041313130440F6A66019
:10D8B00008BD034640F2E24240F6C410002B08BF08
:10D8C000104608BD40F6C41008BD4FF41C71292055
:10D8D000FBF746FE80F8721009F0EEB941F2707362
:10D8E000A0F57A729A4205D9064BA3FB0030C0F32B
:10D8F0008F207047044BA3FB0030800900F5506077
:10D9000080B270475917B7D1D34D62106FF450638E
:10D91000C318062B04D940F2E24303FB00F0704722
:10D920004FF47A73A0F5506003FB00F0704700BF1E
:10D9300041F64B53994208D9C0EB401300EB8300EA
:10D9400000EB8000400080B2704700EB800000EBED
:10D9500080008000704700BF41F64B53994294BF4E
:10D96000642340F2E24303FB00F0704710B46FF40D
:10D97000E9742044884294BF091A491A1868012999
:10D9800000EB510494BF002001201C60136810BC00
:10D99000A3EB510111607047074B93F90030184415
:10D9A000142804DC10F17F0F03DB40B27047142011
:10D9B00070476FF07E007047700B002100B583B098
:10D9C0007F230DF107008DF807300AF05BFF20B9C7
:10D9D0009DF9070003B05DF804FB0A4A9DF9073082
:10D9E0005078404240B21844142806DC10F17F0FF2
:10D9F00005DB40B203B05DF804FB1420EAE76FF0EA
:10DA00007E00E7E7700B0021024B00221A705A706B
:10DA1000704700BF700B0021074B1A7803463AB9D4
:10DA20000649012208680979186010461971704783
:10DA300000221046704700BF740B00211400002123
:10DA400070B5441C05468C4204D00B68C0F8013008
:10DA50000B7923716B790022AE1D03F01F03EA726C
:10DA60006B7114F8010B01F05FFD2071B442EB7A89
:10DA70001844E872F5D170BD81EA1141844689B23B
:10DA80004A4008B5D3B293FAA3F3120A92FAA2F26B
:10DA9000120E1B0E43EA022303EB03130B449AB24C
:10DAA000DBB293FAA3F3120A92FAA2F2120E1B0E41
:10DAB00043EA022303EB03130B449AB2DBB293FA5B
:10DAC000A3F3120A92FAA2F2120EA0481B0E43EA26
:10DAD000022303EB03130B444B409BB2A0FB032038
:10DAE0001A1A00EB5200400900EBC00200EB820062
:10DAF0000122181AC0F3C40100F0070E614402FAB3
:10DB00000EF24978114201D0C0B208BD9CF80B104A
:10DB100001FB03F39CF806104FEA134E1B140EF1A1
:10DB20000100C2B28A425BD9501AC2B29CF80730D7
:10DB3000934280F09A80D01AC2B29CF808309A4280
:10DB400040F2D980D01AC2B29CF809309A420AD960
:10DB5000D01AC2B29CF80A30934280F013819D2102
:10DB60004620FBF7FDFC9CF80430D90705D5501E74
:10DB700010F0FF0201D1032281E0980705D5501E65
:10DB800010F0FF0201D1032238E0590705D5501EDD
:10DB900010F0FF0201D103223BE0180705D5501E0B
:10DBA00010F0FF0201D103223BE0D90605D5501E3B
:10DBB00010F0FF0201D103223BE0980605D5501E6C
:10DBC00010F0FF0201D103223BE0590600F1188159
:10DBD0001806BFD5501E10F0FF02BBD1032242E051
:10DBE0009CF80110C80703D5002B00F01081724685
:10DBF0008B0708D5501E10F0FF0204D1012000EB66
:10DC0000C200C0B208BD480705D5501E10F0FF0283
:10DC100001D10220F3E70B0705D5501E10F0FF02DB
:10DC200001D10320EBE7C80605D5501E10F0FF0216
:10DC300001D10420E3E78B0605D5501E10F0FF024A
:10DC400001D10520DBE7480605D5501E10F0FF0284
:10DC500001D10620D3E70B067FF568AF501E10F008
:10DC6000FF027FF463AF0720C9E79CF8023013F08E
:10DC7000010106D0501E10F0FF0202D10A4600201A
:10DC8000BDE7980705D5501E10F0FF0201D1012213
:10DC9000B4E7590705D5501E10F0FF0201D101224B
:10DCA000B7E7180705D5501E10F0FF0201D1012279
:10DCB000B7E7D90605D5501E10F0FF0201D10122A9
:10DCC000B7E7980605D5501E10F0FF0201D10122DA
:10DCD000B7E7590605D5501E10F0FF0201D1012209
:10DCE000B7E718067FF529AF501E10F0FF027FF44A
:10DCF00024AF0122B7E79CF80330D90705D5501EA1
:10DD000010F0FF0201D10222B9E7980705D5501E95
:10DD100010F0FF0201D1022270E7590705D5501E0D
:10DD200010F0FF0201D1022273E7180705D5501E3B
:10DD300010F0FF0201D1022273E7D90608D5501E68
:10DD400010F0FF0204D1022273E700BF4D91CFBA59
:10DD5000980605D5501E10F0FF0201D1022270E78F
:10DD6000590605D5501E10F0FF0201D1022270E7BE
:10DD700018067FF5E9AE501E10F0FF027FF4E4AE06
:10DD8000022270E79CF80530D90705D5501E10F027
:10DD9000FF0201D1042272E7980705D5501E10F04A
:10DDA000FF0201D1042229E7590705D5501E10F0C2
:10DDB000FF0201D104222CE7180705D5501E10F0F0
:10DDC000FF0201D104222CE7D90613D4980603D50B
:10DDD000501E10F0FF021CD0590603D5501E10F043
:10DDE000FF0218D01B067FF5BAAE012A7FF4B7AE4A
:10DDF000042238E7501E10F0FF02E7D1042218E792
:10DE0000501E10F0FF027FF4E3AE032221E71A4612
:10DE100035E7042215E704221BE700BF90F830C065
:10DE20000CF1FF33242B14D88AB110B5044690F8B6
:10DE3000250080B1012853D1A28A04F12500896907
:10DE4000FFF71AFE0346002084F8333010BD104659
:10DE500070471220704794F8311094F8323002FB6A
:10DE60000132994B83FB0213012113445B1103EB35
:10DE7000C30E03EB8E03D21AD2B204EBD20384F8A2
:10DE8000322093F826E002F0070301FA03F31EEABA
:10DE9000030F65D194F82B10B2FBFCF30CFB13229B
:10DEA000D2B2531CDBB28B425DD95B1ADBB294F861
:10DEB0002C209A4280F093809B1ADBB294F82D209C
:10DEC000934240F2CA809B1ADBB294F82E20934210
:10DED00040F2FC809B1ADBB294F82F209A4201D2C8
:10DEE0001F2010BD94F82A20D10704D5013B13F060
:10DEF000FF0300F04C81910704D5013B13F0FF03B1
:10DF000000F04781510704D5013B13F0FF0300F0F7
:10DF10004281110704D5013B13F0FF0300F0458156
:10DF2000D10604D5013B13F0FF0300F040819106B8
:10DF300004D5013B13F0FF0300F03B81510604D5EB
:10DF4000013B13F0FF0300F036811206C8D5012B08
:10DF5000C6D10423072202EBC30384F8333010BD7B
:10DF600084F8332010BD94F8261011F0010F03D06F
:10DF7000002A00F0F38013468A0704D5013B13F012
:10DF8000FF0300F0DA804A0704D5013B13F0FF03DA
:10DF900000F0D6800A0704D5013B13F0FF0300F020
:10DFA000D280CA0604D5013B13F0FF0300F0CE80F7
:10DFB0008A0604D5013B13F0FF0300F0CA804A062D
:10DFC00004D5013B13F0FF0300F0C6800A067FF57D
:10DFD0006EAF013B13F0FF037FF469AFBAE794F82B
:10DFE000272012F0010104D0013B13F0FF0300F0E1
:10DFF000B880910704D5013B13F0FF0300F09C802B
:10E00000510704D5013B13F0FF0300F0988011077E
:10E0100004D5013B13F0FF0300F09480D10604D532
:10E02000013B13F0FF0300F09080910604D5013B03
:10E0300013F0FF0300F08C80510604D5013B13F070
:10E04000FF0300F0888012067FF538AF013B13F024
:10E05000FF037FF433AF01237CE794F82820D10736
:10E0600003D5013B13F0FF037DD0910703D5013B9E
:10E0700013F0FF0379D0510703D5013B13F0FF03E1
:10E0800075D0110703D5013B13F0FF0371D0D10602
:10E0900003D5013B13F0FF0371D0910603D5013B7B
:10E0A00013F0FF036DD0510603D5013B13F0FF03BE
:10E0B00079D012067FF509AF013B13F0FF037FF41F
:10E0C00004AF022346E700BFA7C867DD94F8292004
:10E0D000D10703D5013B13F0FF034CD0910703D5C3
